:020000040800F2
:1000000000000220AD120008B5110008BB11000865
:10001000C1110008C7110008CD1100080000000040
:10002000000000000000000000000000D3110008E4
:10003000E111000800000000EF110008FD110008A8
:10004000FD120008FD120008FD120008FD12000854
:10005000FD120008FD120008FD120008FD12000844
:10006000FD120008FD120008FD120008FD12000834
:10007000FD120008FD120008FD120008FD12000824
:10008000FD120008FD120008FD120008000000002B
:10009000000000000000000000000000FD12000849
:1000A000FD120008FD120008FD120008FD120008F4
:1000B000FD120008FD120008FD120008FD120008E4
:1000C000FD120008FD120008FD120008FD120008D4
:1000D000FD120008FD120008FD12000800000000DB
:1000E000FD120008FD120008FD12000800000000CB
:1000F000000000000000000000000000FD120008E9
:1001000000000000FD120008FD120008FD120008AA
:1001100000000000000000000000000000000000DF
:10012000FD120008FD120008FD120008FD12000873
:10013000FD120008000000000000000000000000A8
:10014000000000000000000000000000091200088C
:10015000FD120008FD120008FD120008FD12000843
:10016000FD120008FD120008000000000000000061
:10017000000000000000000000000000000000007F
:1001800000000000FD120008000000000000000058
:08019000FD120008FD12000839
:1001A00010B5054C237833B9044B13B10448AFF3B1
:1001B00000800123237010BD6001002000000000BA
:1001C000808F000808B5034B1BB103490348AFF308
:1001D000008008BD0000000064010020808F00083E
:1001E00001F0FF01102A2BDB10F0070F08D010F8E8
:1001F000013B013A8B422DD010F0070F42B3F6D1EC
:10020000F0B441EA012141EA014122F007047FF004
:1002100000070023F0E80256083C85EA010586EA5B
:10022000010685FA47F5A3FA87F586FA47F6A5FA97
:1002300087F68EB9EED1F0BC01F0FF0102F00702A3
:1002400032B110F8013B013A83EA010313B1F8D14E
:100250000020704701387047002D06BF354603382F
:10026000073815F0010F07D1013015F4807F02BF68
:10027000013015F4C03F0130F0BC0138704700BFB9
:1002800053B94AB9002908BF00281CBF4FF0FF31FD
:100290004FF0FF3000F074B9ADF1080C6DE904CEF9
:1002A00000F006F8DDF804E0DDE9022304B0704751
:1002B0002DE9F047089D04468E46002B4DD18A4219
:1002C000944669D9B2FA82F252B101FA02F3C2F14C
:1002D000200120FA01F10CFA02FC41EA030E9440DD
:1002E0004FEA1C48210CBEFBF8F61FFA8CF708FBFE
:1002F00016E341EA034306FB07F199420AD91CEBD6
:10030000030306F1FF3080F01F81994240F21C8107
:10031000023E63445B1AA4B2B3FBF8F008FB10334F
:1003200044EA034400FB07F7A7420AD91CEB040484
:1003300000F1FF3380F00A81A74240F20781644454
:10034000023840EA0640E41B00261DB1D4400023D9
:10035000C5E900433146BDE8F0878B4209D9002D3D
:1003600000F0EF800026C5E9000130463146BDE8C7
:10037000F087B3FA83F6002E4AD18B4202D3824231
:1003800000F2F980841A61EB030301209E46002DE0
:10039000E0D0C5E9004EDDE702B9FFDEB2FA82F235
:1003A000002A40F09280A1EB0C014FEA1C471FFA93
:1003B0008CFE0126200CB1FBF7F307FB131140EA7A
:1003C00001410EFB03F0884208D91CEB010103F147
:1003D000FF3802D2884200F2CB804346091AA4B209
:1003E000B1FBF7F007FB101144EA01440EFB00FEDD
:1003F000A64508D91CEB040400F1FF3102D2A64542
:1004000000F2BB800846A4EB0E0440EA03409CE7E0
:10041000C6F12007B34022FA07FC4CEA030C20FA8D
:1004200007F401FA06F31C43F9404FEA1C4900FAAD
:1004300006F3B1FBF9F8200C1FFA8CFE09FB18112A
:1004400040EA014108FB0EF0884202FA06F20BD99D
:100450001CEB010108F1FF3A80F08880884240F2ED
:100460008580A8F102086144091AA4B2B1FBF9F031
:1004700009FB101144EA014100FB0EFE8E4508D92C
:100480001CEB010100F1FF346CD28E456AD90238B1
:10049000614440EA0840A0FB0294A1EB0E01A14296
:1004A000C846A64656D353D05DB1B3EB080261EB04
:1004B0000E0101FA07F722FA06F3F1401F43C5E9DE
:1004C000007100263146BDE8F087C2F12003D84014
:1004D0000CFA02FC21FA03F3914001434FEA1C4756
:1004E0001FFA8CFEB3FBF7F007FB10360B0C43EA48
:1004F000064300FB0EF69E4204FA02F408D91CEBF8
:10050000030300F1FF382FD29E422DD902386344F5
:100510009B1B89B2B3FBF7F607FB163341EA034195
:1005200006FB0EF38B4208D91CEB010106F1FF38E4
:1005300016D28B4214D9023E6144C91A46EA0046DB
:1005400038E72E46284605E70646E3E61846F8E66D
:100550004B45A9D2B9EB020864EB0C0E0138A3E7B6
:100560004646EAE7204694E74046D1E7D0467BE797
:10057000023B614432E7304609E76444023842E70F
:10058000704700BF80B483B000AF0346FB71FB79B6
:10059000013B092B2AD801A252F823F0C505000817
:1005A000C9050008CD050008D1050008D5050008DB
:1005B000D9050008DD050008E1050008E50500088B
:1005C000E90500080D4B12E00D4B10E00D4B0EE05D
:1005D0000D4B0CE00D4B0AE00D4B08E00D4B06E017
:1005E0000D4B04E00D4B02E00D4B00E00D4B1846A7
:1005F0000C37BD465DF8047B704700BF988F00083C
:10060000A48F0008B08F0008BC8F0008C88F0008B6
:10061000D48F0008E08F0008F08F000800900008D9
:10062000149000082890000880B483B000AF3B60AD
:100630000346FB710B46BB7113467B71FB79002BA4
:1006400007D1BB790C2B04D17B79C02B01D10123BD
:1006500000E0002303F00103DAB23B681A707B79F3
:10066000C02B09D1BB791C2B01D1012342E0BB79FE
:100670002C2B01D102233DE0BB790C2B39D17B79A6
:10068000C02B36D1FB7903F00103002B01D00323EB
:1006900030E0FB7903F00203002B01D0042329E0B2
:1006A000FB7903F00403002B01D0052322E0FB7942
:1006B00003F00803002B01D006231BE0FB7903F0B5
:1006C0004003002B01D0072314E097F90730002BDB
:1006D00001DA08230EE0FB7903F02003002B01D0A0
:1006E000092307E0FB7903F01003002B01D00A2354
:1006F00000E0002318460C37BD465DF8047B7047C8
:1007000080B584B000AF0346FB710021002000F0EB
:10071000E1F80123FB730023BB73FB79013B092B39
:1007200048D801A252F823F0510700085B070008DF
:10073000650700086F0700087907000883070008AD
:100740008D07000897070008A1070008AB070008FD
:100750000523FB730123BB732DE00523FB730223E9
:10076000BB7328E00223FB730123BB7323E0022346
:10077000FB730223BB731EE00123FB730123BB73D6
:1007800019E00123FB730223BB7314E00323FB7303
:100790000123BB730FE00323FB730223BB730AE047
:1007A0000423FB730123BB7305E00423FB730223C3
:1007B000BB7300E000BFBB7B002B05D0BA7BFB7B8B
:1007C0001146184600F086F800BF1037BD4680BDC0
:1007D00080B594B000AF0121394800F0ACF9034670
:1007E000002B04D00D21374807F0C4FA64E007F16C
:1007F000380150230922324800F0FAF9F864FB6C02
:10080000022B54DD97F8383087F84B3097F83930A1
:1008100087F84A3097F83A3087F84930002387F84C
:10082000373007F1370397F8492097F84A1097F8BF
:100830004B00FFF7F9FE034687F8483097F837304A
:10084000002B0FD0204B1B78002B32D00021002032
:1008500000F040F81C4B00221A700C211B4807F0D6
:1008600089FA26E0184B1B78002B24D197F84830E2
:10087000002B21D0144A97F84830137097F848306D
:100880001846FFF73DFF97F848301846FFF77AFE05
:100890000346381D0E4A302107F0F0FE78647B6C69
:1008A0009AB23B1D1146184607F064FA04E000BFF7
:1008B00002E000BF00E000BF5037BD4680BD00BF72
:1008C00018020020309000087C01002040900008B1
:1008D00050900008B0B594B000AF03460A46FB71D3
:1008E0001346BB71624B07F134041D460FCD0FC494
:1008F0002B6823605F4A07F1280307CA03C31A80E5
:100900005B4B07F114041D460FCD0FC42B68236009
:10091000594A07F1080307CA03C31A80FB79002B61
:1009200029D10023FB6422E0FB6C9B0050333B4445
:1009300053F81C0CFB6C5B0050333B4433F8283CF1
:100940000022194601F008F8FB6C9B0050333B4431
:1009500053F83C0CFB6C5B0050333B4433F8483C91
:100960000022194600F0F8FFFB6C0133FB64FB6CBE
:10097000042BD9DD78E0FB79002B72D0FB79052BB5
:100980006FD8FB79013BBB64BB79022B48D0022BAB
:1009900069DC002B02D0012B21D064E0BB6C9B00F2
:1009A00050333B4453F81C0CBB6C5B0050333B444E
:1009B00033F8283C0022194600F0CEFFBB6C9B00A8
:1009C00050333B4453F83C0CBB6C5B0050333B440E
:1009D00033F8483C0022194600F0BEFF44E0BB6CEF
:1009E0009B0050333B4453F81C0CBB6C5B005033F2
:1009F0003B4433F8283C0122194600F0ADFFBB6CA4
:100A00009B0050333B4453F83C0CBB6C5B005033B1
:100A10003B4433F8483C0022194600F09DFF23E098
:100A2000BB6C9B0050333B4453F81C0CBB6C5B000D
:100A300050333B4433F8283C0022194600F08CFF29
:100A4000BB6C9B0050333B4453F83C0CBB6C5B00CD
:100A500050333B4433F8483C0122194600F07CFFF8
:100A600002E000BF00E000BF5037BD46B0BD00BF90
:100A70005C900008709000087C90000880B485B0FD
:100A800000AF0346FB71FB7903F03F03FB71FB7979
:100A900003F00103FB73FB795B08DBB203F0010396
:100AA000BB73FB799B08DBB203F001037B73FB791B
:100AB000DB08DBB203F001033B73FB791B09DBB2FC
:100AC00003F00103FB72FB795B09DBB203F0010366
:100AD000BB72FA7BBB7B5340DAB27B7B5340DAB20A
:100AE000FB7A5340DBB203F001037B72BA7B3B7BA2
:100AF0005340DAB2FB7A5340DAB2BB7A5340DBB2EE
:100B000003F00103002B0CBF01230023DBB23B7277
:100B10007B7A9B015AB297F9073013435AB23B7A5A
:100B2000DB015BB213435BB2DBB218461437BD4640
:100B30005DF8047B704780B586B000AF78600B46E7
:100B4000FB70786803F023F90346002B01D00123E2
:100B50004AE05523FB7507F1170105230122786848
:100B600002F0E1FF0346002B01D001233CE0FB78BB
:100B70001846FFF783FF0346BB7507F116010523EF
:100B80000122786802F0CFFF0346002B01D0012339
:100B90002AE000233B617B681B681B683B617B6824
:100BA0001B685B683B613B690023FB607B681B68DB
:100BB0001B68FB607B681B685B68FB60FB6800234D
:100BC000BB607B681B681B68BB607B681B685B68DD
:100BD000BB60BB687B681B681B687B681B685B68C5
:100BE0007B6800221A64002318461837BD4680BD72
:100BF00080B586B000AFF860B9607A603B600023D2
:100C00007B6100F0E3FB386118E07B69BA68D118BA
:100C100001230122F86803F018F80346002B05D1E0
:100C20007B6901337B6100F0D1FB386100F0CEFBC2
:100C300002463B69D31A3A689A4204D37A697B68C0
:100C40009A42E2DB00E000BF7B6918461837BD46D8
:100C500080BD000080B582B000AF00F051FB00F015
:100C60001FF800F00BF900F087F800F0B3F800F07F
:100C7000DBF806F0C1FF4FF47A7000F0B3FB0122FD
:100C80008021054800F068FE044B7B60FFF7A0FD63
:100C9000322000F0A7FBF9E700040240889000082A
:100CA00080B594B000AF07F1200330220021184630
:100CB00007F0DCFC07F10C0300221A605A609A600E
:100CC000DA601A610023BB60294B1B6C284A43F091
:100CD00080531364264B1B6C03F08053BB60BB68CE
:100CE00000237B60234B1B68224A43F4404313607C
:100CF000204B1B6803F440437B607B6803233B620B
:100D00004FF480337B620123FB6210233B63022399
:100D1000BB634FF48003FB630F233B6490237B642E
:100D20000223BB640523FB6407F12003184602F08D
:100D3000EFF90346002B01D000F03AF90F23FB60D6
:100D400000233B6100237B610023BB610023FB6127
:100D500007F10C030021184602F052FC0346002B59
:100D600001D000F025F900BF5037BD4680BD00BF5F
:100D7000003802400070004080B500AF124B134AAB
:100D80001A60114B124A5A600F4B00229A600E4BA8
:100D90000022DA600C4B4FF480421A610A4B0022A9
:100DA0005A61094B00229A61074B0022DA61064B17
:100DB00000221A62044800F0E9FD0346002B01D02E
:100DC00000F0F6F800BF80BD800100200054004014
:100DD000A086010080B500AF114B124A1A60104B7B
:100DE0004FF4E1325A600E4B00229A600C4B002205
:100DF000DA600B4B00221A61094B0C225A61084B36
:100E000000229A61064B0022DA61054802F0D8FD03
:100E10000346002B01D000F0CBF800BF80BD00BF1F
:100E2000D40100200010014080B500AF114B124AE0
:100E30001A60104B4FF496425A600E4B00229A6093
:100E40000C4B0022DA600B4B00221A61094B0C227A
:100E50005A61084B00229A61064B0022DA61202178
:100E6000044802F0FAFD0346002B01D000F0A0F880
:100E700000BF80BD180200200044004080B58AB049
:100E800000AF07F1140300221A605A609A60DA601A
:100E90001A6100233B61424B1B6B414A43F0040340
:100EA00013633F4B1B6B03F004033B613B6900235F
:100EB000FB603B4B1B6B3A4A43F080031363384B98
:100EC0001B6B03F08003FB60FB680023BB60344BAB
:100ED0001B6B334A43F001031363314B1B6B03F06D
:100EE0000103BB60BB6800237B602D4B1B6B2C4A4E
:100EF00043F0020313632A4B1B6B03F002037B6076
:100F00007B6800224FF40051264800F025FD0022A6
:100F1000F321254800F020FD002247F287512348A5
:100F200000F01AFD4FF400537B610123BB610023E5
:100F3000FB6100233B6207F114031946194800F0D6
:100F400087FBF3237B610123BB610023FB6100234B
:100F50003B6207F114031946134800F079FB47F28E
:100F600087537B610123BB610023FB6100233B624C
:100F700007F1140319460D4800F06AFB4FF40043D3
:100F80007B610023BB610123FB6107F11403194658
:100F9000064800F05DFB00BF2837BD4680BD00BF9E
:100FA00000380240000802400000024000040240F5
:100FB00080B400AF72B600BFFEE7000080B483B01B
:100FC00000AF00237B60104B5B6C0F4A43F48043FF
:100FD00053640D4B5B6C03F480437B607B680023A0
:100FE0003B60094B1B6C084A43F080531364064B6B
:100FF0001B6C03F080533B603B6800BF0C37BD4661
:101000005DF8047B704700BF0038024080B58AB0AD
:1010100000AF786007F1140300221A605A609A60EA
:10102000DA601A617B681B68194A93422CD100234D
:101030003B61184B1B6B174A43F002031363154BBC
:101040001B6B03F002033B613B694FF410737B6140
:101050001223BB610023FB6103233B6204237B62F9
:1010600007F1140319460C4800F0F2FA0023FB6064
:10107000084B1B6C074A43F400131364054B1B6CAD
:1010800003F40013FB60FB6800BF2837BD4680BD3A
:1010900000540040003802400004024080B58CB08B
:1010A00000AF786007F11C0300221A605A609A6052
:1010B000DA601A617B681B683A4A93422DD100239B
:1010C000BB61394B5B6C384A43F010035364364BB9
:1010D0005B6C03F01003BB61BB6900237B61324B87
:1010E0001B6B314A43F0010313632F4B1B6B03F05F
:1010F00001037B617B694FF4C063FB6102233B62A8
:1011000000237B620323BB620723FB6207F11C03FE
:101110001946264800F09CFA40E07B681B68244A88
:1011200093423BD100233B611F4B1B6C1E4A43F48F
:10113000003313641C4B1B6C03F400333B613B69AD
:101140000023FB60184B1B6B174A43F0010313632A
:10115000154B1B6B03F00103FB60FB680423FB6171
:1011600002233B6200237B620223BB620723FB62F4
:1011700007F11C0319460D4800F06AFA0823FB61C9
:1011800002233B6201237B620223BB620723FB62D3
:1011900007F11C031946054800F05AFA00BF303722
:1011A000BD4680BD001001400038024000000240F2
:1011B0000044004080B400AFFEE780B400AFFEE71B
:1011C00080B400AFFEE780B400AFFEE780B400AFAC
:1011D000FEE780B400AF00BFBD465DF8047B7047FA
:1011E00080B400AF00BFBD465DF8047B704780B49B
:1011F00000AF00BFBD465DF8047B704780B500AF0F
:1012000000F0D0F800BF80BD80B500AF024800F00C
:1012100051FE00BF80BD00BF4417002080B586B0DE
:1012200000AF7860144A154BD31A7B617B693B6130
:10123000134B1B68002B02D1114B124A1A60104B42
:101240001A687B6813443A699A4207D207F0E4F9B6
:1012500003460C221A604FF0FF3309E0084B1B686D
:10126000FB60074B1A687B681344054A1360FB68F0
:1012700018461837BD4680BD00000220000400005B
:101280005C020020801E002080B400AF064BD3F823
:101290008830054A43F47003C2F8883000BFBD4669
:1012A0005DF8047B704700BF00ED00E0DFF834D04C
:1012B0000D480E490E4A002302E0D458C4500433AE
:1012C000C4188C42F9D30B4A0B4C002301E0136085
:1012D0000432A242FBD3FFF7D7FF07F0A3F9FFF7D1
:1012E000B9FC7047000002200000002060010020CF
:1012F0003891000860010020801E0020FEE70000F9
:1013000080B500AF0E4B1B680D4A43F400731360A9
:101310000B4B1B680A4A43F480631360084B1B683D
:10132000074A43F480731360032000F04FF90F2045
:1013300000F008F8FFF742FE0023184680BD00BF0A
:10134000003C024080B582B000AF7860124B1A6852
:10135000124B1B7819464FF47A73B3FBF1F3B2FBCF
:10136000F3F3184600F067F90346002B01D0012380
:101370000EE07B680F2B0AD8002279684FF0FF300F
:1013800000F02FF9064A7B681360002300E0012378
:1013900018460837BD4680BD000000200800002028
:1013A0000400002080B400AF064B1B781A46064BA1
:1013B0001B681344044A136000BFBD465DF8047BFC
:1013C000704700BF080000206002002080B400AF1A
:1013D000034B1B681846BD465DF8047B704700BF91
:1013E0006002002080B584B000AF7860FFF7EEFFA8
:1013F000B8607B68FB60FB68B3F1FF3F05D00A4B28
:101400001B781A46FB681344FB6000BFFFF7DEFF42
:101410000246BB68D31AFA689A42F7D800BF00BFE9
:101420001037BD4680BD00BF0800002080B485B0E5
:1014300000AF78607B6803F00703FB600C4BDB6850
:10144000BB60BA684FF6FF031340BB60FB681A022B
:10145000BB68134343F0BF6343F40033BB60044AEB
:10146000BB68D36000BF1437BD465DF8047B70478E
:1014700000ED00E080B400AF044BDB681B0A03F012
:1014800007031846BD465DF8047B704700ED00E099
:1014900080B483B000AF0346FB7197F90730002B8F
:1014A0000BDBFB7903F01F02074997F907305B0953
:1014B000012000FA02F241F8232000BF0C37BD469C
:1014C0005DF8047B704700BF00E100E080B483B0AA
:1014D00000AF03463960FB7197F90730002B0ADB38
:1014E0003B68DAB20C4997F907301201D2B20B44CB
:1014F00083F800230AE03B68DAB20849FB7903F07D
:101500000F03043B1201D2B20B441A7600BF0C3712
:10151000BD465DF8047B704700E100E000ED00E0AF
:1015200080B489B000AFF860B9607A60FB6803F0FE
:101530000703FB61FB69C3F10703042B28BF0423E6
:10154000BB61FB690433062B02D9FB69033B00E056
:1015500000237B614FF0FF32BB6902FA03F3DA43E9
:10156000BB681A407B699A404FF0FF317B6901FAF2
:1015700003F3D9437B680B40134318462437BD4619
:101580005DF8047B7047000080B582B000AF7860E2
:101590007B68013BB3F1807F01D301230FE00A4A4E
:1015A0007B68013B53600F214FF0FF30FFF78EFF48
:1015B000054B00229A60044B07221A60002318464C
:1015C0000837BD4680BD00BF10E000E080B582B0A6
:1015D00000AF78607868FFF729FF00BF0837BD4685
:1015E00080BD80B586B000AF0346B9607A60FB73FA
:1015F00000237B61FFF73EFF78617A68B9687869FC
:10160000FFF78EFF024697F90F3011461846FFF795
:101610005DFF00BF1837BD4680BD80B582B000AF0A
:101620000346FB7197F907301846FFF731FF00BFFB
:101630000837BD4680BD80B582B000AF786078685D
:10164000FFF7A2FF034618460837BD4680BD0000DD
:1016500080B489B000AF7860396000237B610023DB
:101660003B610023BB610023FB6159E10122FB695F
:1016700002FA03F37B613B681B687A6913403B61A4
:101680003A697B699A4240F048813B685B6803F0A5
:101690000303012B05D03B685B6803F00303022BB7
:1016A00030D17B689B68BB61FB695B00032202FA57
:1016B00003F3DB43BA691340BB613B68DA68FB693B
:1016C0005B0002FA03F3BA691343BB617B68BA6932
:1016D0009A607B685B68BB610122FB6902FA03F3D5
:1016E000DB43BA691340BB613B685B681B0903F0CD
:1016F0000102FB6902FA03F3BA691343BB617B6819
:10170000BA695A603B685B6803F00303032B17D088
:101710007B68DB68BB61FB695B00032202FA03F3B1
:10172000DB43BA691340BB613B689A68FB695B00A5
:1017300002FA03F3BA691343BB617B68BA69DA60E2
:101740003B685B6803F00303022B23D1FB69DA08D3
:101750007B68083253F82230BB61FB6903F0070352
:101760009B000F2202FA03F3DB43BA691340BB610B
:101770003B681A69FB6903F007039B0002FA03F355
:10178000BA691343BB61FB69DA087B680832B9693F
:1017900043F822107B681B68BB61FB695B00032276
:1017A00002FA03F3DB43BA691340BB613B685B6831
:1017B00003F00302FB695B0002FA03F3BA69134307
:1017C000BB617B68BA691A603B685B6803F44033AD
:1017D000002B00F0A2800023FB60574B5B6C564A45
:1017E00043F480435364544B5B6C03F48043FB60CD
:1017F000FB68524AFB699B08023352F82330BB61F5
:10180000FB6903F003039B000F2202FA03F3DB439F
:10181000BA691340BB617B68494A934219D07B681F
:10182000484A934213D07B68474A93420DD07B6865
:10183000464A934207D07B68454A934201D104232C
:1018400008E0072306E0032304E0022302E001236B
:1018500000E00023FA6902F0030292009340BA69A3
:101860001343BB613549FB699B080233BA6941F8F0
:101870002320384B9B68BB613B69DB43BA6913404B
:10188000BB613B685B6803F48013002B03D0BA692B
:101890003B691343BB612F4ABB6993602D4BDB68E7
:1018A000BB613B69DB43BA691340BB613B685B6862
:1018B00003F40013002B03D0BA693B691343BB61E7
:1018C000244ABB69D360234B5B68BB613B69DB4344
:1018D000BA691340BB613B685B6803F40033002BBB
:1018E00003D0BA693B691343BB611A4ABB695360B1
:1018F000184B1B68BB613B69DB43BA691340BB6192
:101900003B685B6803F48033002B03D0BA693B6902
:101910001343BB610F4ABB691360FB690133FB6171
:10192000FB690F2B7FF6A2AE00BF00BF2437BD4678
:101930005DF8047B704700BF00380240003801406A
:10194000000002400004024000080240000C024077
:1019500000100240003C014080B483B000AF7860CA
:101960000B467B8013467B707B78002B03D07A88F4
:101970007B689A6103E07B881A047B689A6100BFE8
:101980000C37BD465DF8047B7047000080B584B01D
:1019900000AF78607B68002B01D101232BE17B68CD
:1019A00093F83D30DBB2002B06D17B68002283F830
:1019B0003C207868FFF72AFB7B68242283F83D20CF
:1019C0007B681B681A687B681B6822F001021A603A
:1019D0007B681B681A687B681B6842F400421A60C7
:1019E0007B681B681A687B681B6822F400421A60D7
:1019F00001F0BEFFF8607B685B68814A934207D8BC
:101A0000FB68804A934294BF01230023DBB206E0C7
:101A1000FB687D4A934294BF01230023DBB2002B75
:101A200001D00123E7E0FB68784AA2FB03239B0C6B
:101A3000BB607B681B685B6823F03F017B681B68A9
:101A4000BA680A435A607B681B681B6A23F03F012F
:101A50007B685B686A4A934202D8BB68013309E03D
:101A6000BB684FF4967202FB03F3694AA2FB03239F
:101A70009B0901337A6812680B4313627B681B6809
:101A8000DB6923F44F4222F0FF027B685B685C490C
:101A90008B4219D8FB68591E7B685B685B00B1FB01
:101AA000F3F3591C40F6FC730B40002B0AD0FB6883
:101AB000591E7B685B685B00B1FBF3F30133C3F332
:101AC0000B0351E004234FE07B689B68002B11D18E
:101AD000FB68581E7B6859680B465B000B44B0FBE3
:101AE000F3F30133C3F30B03002B0CBF01230023DB
:101AF000DBB212E0FB68581E7B6859680B469B00FE
:101B00000B4499000B44B0FBF3F30133C3F30B0315
:101B1000002B0CBF01230023DBB2002B01D00123DB
:101B200022E07B689B68002B0ED1FB68581E7B6807
:101B300059680B465B000B44B0FBF3F30133C3F36E
:101B40000B0343F400430FE0FB68581E7B685968A1
:101B50000B469B000B4499000B44B0FBF3F301339D
:101B6000C3F30B0343F44043796809681343CB6123
:101B70007B681B681B6823F0C0017B68DA697B689F
:101B80001B6A1A437B681B680A431A607B681B68E0
:101B90009B6823F4034323F0FF037A6811697A6892
:101BA000D26811437A6812680B4393607B681B68A4
:101BB000DB6823F0FF017B685A697B689B691A43E5
:101BC0007B681B680A43DA607B681B681A687B685D
:101BD0001B6842F001021A607B6800221A647B686D
:101BE000202283F83D207B6800221A637B68002254
:101BF00083F83E20002318461037BD4680BD00BF45
:101C0000A08601007F841E00FF083D0083DE1B4389
:101C1000D34D6210F0B58FB00AAF78607B68002BAF
:101C200001D101230FE17B681B68BB607B6893F8DF
:101C3000BD34DBB2002B06D17B68002283F8BC24C4
:101C4000786806F0DFF97B68032283F8BD24BB685F
:101C5000DB6B03F48073002B02D17B6800221A61D6
:101C60007B681B68184602F0C6FC7B681B683B60FB
:101C70007E686D4606F110040FCC0FC50FCC0FC562
:101C800094E8030085E80300331D0ECB386802F0AA
:101C90009DFB0346002B05D07B68022283F8BD2400
:101CA0000123D0E07B681B680021184602F0B4FCD9
:101CB0000023FB734AE0FA7B79681346DB00134488
:101CC0009B000B443D3301221A70FA7B796813465E
:101CD000DB0013449B000B443C33FA7B1A70FA7B05
:101CE000FB7B98B279681346DB0013449B000B44DE
:101CF000443302461A80FA7B79681346DB001344AA
:101D00009B000B44403300221A70FA7B796813461B
:101D1000DB0013449B000B44483300221A60FA7B1B
:101D200079681346DB0013449B000B444C330022BC
:101D30001A60FA7B79681346DB0013449B000B445E
:101D4000543300221A60FB7B0133FB73FA7B7B6800
:101D50005B689A42AFD30023FB7344E0FA7B796857
:101D60001346DB0013449B000B4403F27D23002247
:101D70001A70FA7B79681346DB0013449B000B440E
:101D800003F51F73FA7B1A70FA7B79681346DB0040
:101D900013449B000B4403F5207300221A70FA7B56
:101DA00079681346DB0013449B000B4403F5227350
:101DB00000221A60FA7B79681346DB0013449B000B
:101DC0000B4403F5237300221A60FA7B79681346EB
:101DD000DB0013449B000B4403F5257300221A60BB
:101DE000FB7B0133FB73FA7B7B685B689A42B5D35C
:101DF0007B681B683B607E686D4606F110040FCC63
:101E00000FC50FCC0FC594E8030085E80300331D10
:101E10000ECB386802F04CFC0346002B05D07B68E3
:101E2000022283F8BD2401230DE07B68002283F8A1
:101E300038207B68012283F8BD247B681B68184624
:101E400003F09BFD002318461437BD46F0BD80B556
:101E500084B000AF78607B681B68FB607B6893F898
:101E6000BC34012B01D1022320E07B68012283F8DE
:101E7000BC247B689B6A012B09D17B689B69012B81
:101E800005D0FB689B6B43F48032FB689A637B68E8
:101E90001B68184602F09EFB7B681B68184603F01F
:101EA0004BFD7B68002283F8BC24002318461037C2
:101EB000BD4680BD90B58DB000AF78607B681B6873
:101EC0003B623B6AFB617B681B68184603F009FEB6
:101ED0000346002B40F08A847B681B68184603F099
:101EE0006DFD0346002B00F08084FB6903F5006361
:101EF0009B681B0AC3F30D027B68C3F8FC247B6854
:101F00001B68184603F05AFD034603F00203022B38
:101F100007D17B681B685A697B681B6802F0020264
:101F20005A617B681B68184603F048FD034603F0BE
:101F30001003102B61D17B681B689A697B681B6852
:101F400022F010029A613B6A1B6ABB61BB6903F015
:101F50000F021346DB0013449B0003F51E737A68DF
:101F6000134404337B61BB695B0C03F00F03022B4A
:101F700024D1BA6947F6F0731340002B35D07B6942
:101F80001969BB691B099BB2C3F30A039BB21A46CA
:101F9000386A03F07FFB7B691A69BB691B09C3F3CD
:101FA0000A031A447B691A617B691A6ABB691B09B7
:101FB000C3F30A031A447B691A6216E0BB695B0C1F
:101FC00003F00F03062B10D17B6803F2C4430822F1
:101FD0001946386A03F05EFB7B691A6ABB691B0904
:101FE000C3F30A031A447B691A627B681B689A6907
:101FF0007B681B6842F010029A617B681B68184678
:1020000003F0DCFC034603F40023B3F5002F40F09B
:10201000A78000237B627B681B68184603F0E1FC05
:10202000B86299E0BB6A03F00103002B00F08E80D8
:102030007B681B687A6AD2B21146184603F005FD28
:1020400038613B6903F00103002B0CD07B6A5A0115
:10205000FB69134403F530631A4601239360796AE0
:10206000786800F0C3FE3B6903F00803002B0CD036
:102070007B6A5A01FB69134403F530631A4608234F
:102080009360796A786800F099FF3B6903F0100368
:10209000002B08D07B6A5A01FB69134403F53063B7
:1020A0001A46102393603B6903F00203002B30D0E3
:1020B0003B6A5B6903F08003802B09D1FB6903F560
:1020C00000635B68FA6902F5006243F48063536061
:1020D0007A6A1346DB0013449B0003F51E737A688B
:1020E000134404337B617B69DB78012B08D17B6966
:1020F0000022DA707B6ADBB21946786806F07EF857
:102100007B6A5A01FB69134403F530631A460223C4
:1021100093603B6903F02003002B08D07B6A5A01CF
:10212000FB69134403F530631A46202393603B692F
:1021300003F40053002B09D07B6A5A01FB69134456
:1021400003F530631A464FF4005393607B6A013302
:102150007B62BB6A5B08BB62BB6A002B7FF462AF29
:102160007B681B68184603F029FC034603F48023B0
:10217000B3F5802F40F0DB807B681B68184603F0C6
:102180004AFCB86200237B62CDE0BB6A03F0010326
:10219000002B00F0C2807B681B687A6AD2B21146BD
:1021A000184603F070FC38613B6903F00103002B13
:1021B00057D07B6A03F00F03012202FA03F3FB609E
:1021C000FB6903F500635A6BFB68DB43F96901F5B2
:1021D000006113404B637B6A5A01FB69134403F5AA
:1021E00010631A46012393607B681B69012B32D16F
:1021F00079687A6A1346DB0013449B000B444C3326
:10220000196878687A6A1346DB0013449B0003441C
:1022100048331B68194478687A6A1346DB00134414
:102220009B0003444C3319607B6A002B13D17968FF
:102230007A6A1346DB0013449B000B4454331B683B
:10224000002B08D17B6818687B6803F2C4431A46E8
:10225000012103F077FC7B6ADBB21946786805F050
:1022600052FF3B6903F00803002B08D07B6A5A0138
:10227000FB69134403F510631A46082393603B6916
:1022800003F01003002B08D07B6A5A01FB6913444A
:1022900003F510631A46102393603B6903F0400373
:1022A000002B08D07B6A5A01FB69134403F51063C5
:1022B0001A46402393603B6903F00203002B23D0AE
:1022C000796A386A02F058FB7A6A1346DB001344D5
:1022D0009B0038337A68134404337B617B69DB7875
:1022E000012B08D17B690022DA707B6ADBB21946C8
:1022F000786805F095FF7B6A5A01FB69134403F582
:1023000010631A46022393603B6903F08003002B9D
:1023100003D0796A786800F0DBFC7B6A01337B626A
:10232000BB6A5B08BB62BB6A002B7FF42EAF7B6885
:102330001B68184603F042FB034603F00043B3F169
:10234000004F22D1FB6903F500635B68FA6902F56F
:10235000006223F0010353607B6893F8F434012B8F
:1023600008D17B68002283F8F4240021786800F00B
:10237000C3FE02E0786805F033FF7B681B685A698A
:102380007B681B6802F000425A617B681B68184634
:1023900003F014FB034603F40063B3F5006F12D19E
:1023A000FB6903F500639B6803F00103012B02D175
:1023B000786805F0EFFE7B681B685A697B681B68CC
:1023C00002F400625A617B681B68184603F0F6FA53
:1023D000034603F48053B3F5805F40F0B780FB6998
:1023E00003F500635B68FA6902F5006223F00103FC
:1023F00053607B681B681021184602F0BDFA002369
:10240000FB6246E0FB6A5A01FB69134403F5106363
:102410001A464FF67F339360FB6A5A01FB691344F7
:1024200003F510631B68FA6A5101FA690A4402F560
:10243000106223F400131360FB6A5A01FB69134412
:1024400003F530631A464FF67F339360FB6A5A01F7
:10245000FB69134403F530631B68FA6A5101FA699A
:102460000A4402F5306223F400131360FB6A5A0138
:10247000FB69134403F530631B68FA6A5101FA697A
:102480000A4402F5306243F000631360FB6A0133D3
:10249000FB627B685B68FA6A9A42B3D3FB6903F517
:1024A0000063DB69FA6902F5006243F00113D3614E
:1024B0007B681B6B002B16D0FB6903F50063D3F818
:1024C0008430FA6902F5006243F00B03C2F88430ED
:1024D000FB6903F500635B6CFA6902F5006243F087
:1024E0000B03536415E0FB6903F500635B69FA694C
:1024F00002F5006243F4005343F02B035361FB6980
:1025000003F500631B69FA6902F5006243F00B03EF
:102510001361FB6903F500631B68FA6902F5006249
:1025200023F4FE6313607B6818687B681B69D9B26B
:102530007B6803F2C4431A4603F004FB7B681B6804
:102540005A697B681B6802F480525A617B681B6879
:10255000184603F033FA034603F40053B3F5005F63
:1025600024D17B681B68184603F0C9FA7B681B6896
:10257000184602F07EFA03461A467B68DA607B68EA
:102580001C6801F0E9F901467B68DB68DBB21A469A
:10259000204601F07DFF786805F0DDFD7B681B6853
:1025A0005A697B681B6802F400525A617B681B6899
:1025B000184603F003FA034603F00803082B0AD178
:1025C000786805F0BAFD7B681B685A697B681B68F0
:1025D00002F008025A617B681B68184603F0EEF9A6
:1025E000034603F08003802B22D13B6A9B6923F0D2
:1025F00080023B6A9A6101237B6214E079687A6AFF
:102600001346DB0013449B000B4403F27F231B782B
:10261000012B05D17B6ADBB21946786800F027FBF5
:102620007B6A01337B627B685B687A6A9A42E5D396
:102630007B681B68184603F0C1F9034603F4801356
:10264000B3F5801F3BD101237B622BE07B6A5A01EB
:10265000FB69134403F510631B68BB6179687A6AF0
:102660001346DB0013449B000B4440331B78012BC3
:1026700015D1BB69002B12DA79687A6A1346DB0040
:1026800013449B000B443F3301221A707B6ADBB278
:1026900063F07F03DBB21946786800F0E8FA7B6AE2
:1026A00001337B627B685B687A6A9A42CED37B682F
:1026B0001B685A697B681B6802F480125A617B6848
:1026C0001B68184603F07AF9034603F40013B3F5C8
:1026D000001F55D101237B6245E07B6A5A01FB69EB
:1026E000134403F530631B68BB6179687A6A13464B
:1026F000DB0013449B000B4403F520731B78012B74
:102700002ED1BB69002B2BDABB6903F480327B68C6
:10271000D3F8FC3403F001039A4221D179687A6A34
:102720001346DB0013449B000B4403F27F2301227A
:102730001A703B6A9B6943F080023B6A9A613B6A6C
:102740005B6903F08003002B0AD1FB6903F500638A
:102750005B68FA6902F5006243F40073536007E0B6
:102760007B6A01337B627B685B687A6A9A42B4D386
:102770007B681B685A697B681B6802F400125A6107
:102780007B681B68184603F019F9034603F0804381
:10279000B3F1804F0AD1786805F054FD7B681B685F
:1027A0005A697B681B6802F080425A617B681B682B
:1027B000184603F003F9034603F00403042B15D174
:1027C0007B681B685B68BB61BB6903F00403002B7B
:1027D00002D0786805F044FD7B681B6859687B6807
:1027E0001B68BA690A435A6000E000BF3437BD462F
:1027F00090BD80B582B000AF78600B46FB707B68FF
:1028000093F8BC34012B01D1022313E07B68012231
:1028100083F8BC247B68FA7883F838207B681B68CF
:10282000FA781146184603F061F87B68002283F8B5
:10283000BC24002318460837BD4680BD80B584B04F
:1028400000AF7860084611461A460346FB700B46F7
:102850003B801346BB700023FB7297F90330002BBB
:102860000FDAFB7803F00F021346DB0013449B00E2
:1028700038337A6813440433FB60FB6801225A70D2
:102880000FE0FB7803F00F021346DB0013449B00BC
:1028900003F51E737A6813440433FB60FB6800225F
:1028A0005A70FB7803F00F03DAB2FB681A703A88AB
:1028B000FB68DA60FB68BA781A71FB685B78002BFA
:1028C00004D0FB681B789AB2FB681A81BB78022B94
:1028D00002D1FB6800225A717B6893F8BC34012B4B
:1028E00001D102230EE07B68012283F8BC247B68BF
:1028F0001B68F968184602F0E1F87B68002283F84B
:10290000BC24FB7A18461037BD4680BD80B584B024
:1029100000AF78600B46FB7097F90330002B0FDA9D
:10292000FB7803F00F021346DB0013449B0038339F
:102930007A6813440433FB60FB6801225A700FE08D
:10294000FB7803F00F021346DB0013449B0003F5F2
:102950001E737A6813440433FB60FB6800225A70CC
:10296000FB7803F00F03DAB2FB681A707B6893F808
:10297000BC34012B01D102230EE07B68012283F8D5
:10298000BC247B681B68F968184602F01FF97B6855
:10299000002283F8BC24002318461037BD4680BDB2
:1029A00080B586B000AFF8607A603B600B46FB7282
:1029B000FB7A03F00F021346DB0013449B0003F580
:1029C0001E73FA68134404337B617B697A681A6169
:1029D0007B693A689A617B6900221A627B690022EE
:1029E0005A70FB7A03F00F03DAB27B691A70FB6846
:1029F0001B69012B02D17A687B695A61FB7A03F06B
:102A00000F03002B09D1FB681868FB681B69DBB258
:102A10001A46796902F0FEFB08E0FB681868FB685B
:102A20001B69DBB21A46796902F0ACF9002318463B
:102A30001837BD4680BD80B483B000AF78600B46C8
:102A4000FB70FB7803F00F0279681346DB00134438
:102A50009B000B4403F527731B6818460C37BD46D3
:102A60005DF8047B704780B586B000AFF8607A608F
:102A70003B600B46FB72FB7A03F00F021346DB0050
:102A800013449B003833FA68134404337B617B6939
:102A90007A681A617B693A689A617B6900221A62D6
:102AA0007B6901225A70FB7A03F00F03DAB27B696B
:102AB0001A70FB681B69012B02D17A687B695A6125
:102AC000FB7A03F00F03002B09D1FB681868FB6841
:102AD0001B69DBB21A46796902F09CFB08E0FB68CF
:102AE0001868FB681B69DBB21A46796902F04AF97B
:102AF000002318461837BD4680BD80B584B000AFAE
:102B000078600B46FB70FB7803F00F027B685B6814
:102B10009A4201D9012350E097F90330002B0FDAD4
:102B2000FB7803F00F021346DB0013449B0038339D
:102B30007A6813440433FB60FB6801225A700DE08D
:102B4000FA781346DB0013449B0003F51E737A6882
:102B500013440433FB60FB6800225A70FB680122B7
:102B60009A70FB7803F00F03DAB2FB681A707B6887
:102B700093F8BC34012B01D102231EE07B680122B3
:102B800083F8BC247B681B68F968184602F0DAFDFC
:102B9000FB7803F00F03002B0AD17B6818687B6871
:102BA0001B69D9B27B6803F2C4431A4602F0CAFF1C
:102BB0007B68002283F8BC24002318461037BD46EA
:102BC00080BD80B584B000AF78600B46FB70FB78A9
:102BD00003F00F027B685B689A4201D9012342E04F
:102BE00097F90330002B0FDAFB7803F00F0213463E
:102BF000DB0013449B0038337A6813440433FB60D2
:102C0000FB6801225A700FE0FB7803F00F021346B5
:102C1000DB0013449B0003F51E737A6813440433EE
:102C2000FB60FB6800225A70FB6800229A70FB78F8
:102C300003F00F03DAB2FB681A707B6893F8BC34B8
:102C4000012B01D102230EE07B68012283F8BC2412
:102C50007B681B68F968184602F0E2FD7B68002279
:102C600083F8BC24002318461037BD4680BD80B5CC
:102C700084B000AF78600B46FB7097F90330002BEF
:102C80000CDAFB7803F00F021346DB0013449B00C1
:102C900038337A6813440433FB600CE0FB7803F0AC
:102CA0000F021346DB0013449B0003F51E737A6882
:102CB00013440433FB607B681B68F968184602F014
:102CC00001FC0346FB72FB7A18461037BD4680BDF7
:102CD00080B58AB002AF786039607B681B687B6121
:102CE0007B693B613A681346DB0013449B00383331
:102CF0007A6813440433FB60FB681A6AFB689B69BB
:102D00009A4201D901236CE0FB689A69FB681B6A4F
:102D1000D31AFB61FB68DB68FA699A4202D9FB6847
:102D2000DB68FB61FB6903339B08BB612BE0FB683D
:102D30009A69FB681B6AD31AFB61FB68DB68FA6956
:102D40009A4202D9FB68DB68FB61FB6903339B088D
:102D5000BB61FB6819693B68DAB2FB6998B27B68B2
:102D60001B69DBB200930346786902F055FCFB68EF
:102D70001A69FB691A44FB681A61FB681A6AFB69E5
:102D80001A44FB681A623B685A013B69134403F515
:102D900010639B699BB2BA699A4209D8FB681A6AA8
:102DA000FB689B699A4203D2FB689B69002BBED1EA
:102DB000FB689A69FB681B6A9A4211D83B6803F06A
:102DC0000F03012202FA03F3BB603B6903F50063C2
:102DD0005A6BBB68DB43396901F5006113404B63F3
:102DE000002318462037BD4680BD000080B588B05E
:102DF00000AF786039607B681B68FB61FB69BB6171
:102E0000FB693C3304331B687B613B685A01BB6937
:102E1000134403F530639B683B617B681B69012B9E
:102E20007BD13B6903F00803002B15D07B69614A15
:102E3000934240F2B9803B6903F40043002B00F059
:102E4000B3803B685A01BB69134403F530631A46EB
:102E50004FF400439360A7E03B6903F02003002B8D
:102E600009D03B685A01BB69134403F530631A4625
:102E70002023936098E03B6903F02803002B40F087
:102E800093807B694B4A93420FD93B6903F400431B
:102E9000002B0AD03B685A01BB69134403F5306329
:102EA0001A464FF4004393607EE03A681346DB0015
:102EB00013449B0003F51E737A6813440433FB60CC
:102EC000FB68DA693B685901BB690B4403F5306361
:102ED0001B69C3F31203D21AFB681A623B68002B0A
:102EE00014D1FB689B69002B09D17B6818687B684B
:102EF00003F2C4431A46012102F024FE06E0FB68F7
:102F00001A69FB681B6A1A44FB681A613B68DBB2EA
:102F10001946786805F0DCF846E07B69264A93425A
:102F200024D13B6903F40043002B0AD03B685A01CB
:102F3000BB69134403F530631A464FF400439360B2
:102F400032E03B6903F02003002B08D03B685A01B4
:102F5000BB69134403F530631A46202393603B6832
:102F6000DBB21946786805F0B3F81DE03B68002B2A
:102F700014D179683A681346DB0013449B000B4474
:102F800003F525731B68002B08D17B6818687B68E4
:102F900003F2C4431A46002102F0D4FD3B68DBB2C1
:102FA0001946786805F094F8002318462037BD4686
:102FB00080BD00BF0A30544F0A31544F80B586B0EF
:102FC00000AF786039607B681B687B617B693B611F
:102FD0007B693C3304331B68FB603B685A013B69E7
:102FE000134403F530639B68BB60FB68154A93424A
:102FF0000ED9BB6803F40043002B09D03B685A018B
:103000003B69134403F530631A464FF40043936061
:10301000786805F04BF8FB680A4A93420CD97B6844
:103020001B69012B08D17B6818687B6803F2C443D5
:103030001A46012102F086FD002318461837BD46C6
:1030400080BD00BF0A30544F80B485B000AF7860B7
:103050000B46FB7013463B807B681B685B6ABB605A
:10306000FB78002B07D13B8819047B681B68BA6882
:103070000A439A6228E07B681B689B6A1B0CBA684B
:103080001344BB600023FB730DE07B681A68FB7B75
:1030900040339B0013445B681B0CBA681344BB604D
:1030A000FB7B0133FB73FA7BFB78013B9A42ECD349
:1030B0003B8818047B681968FB78013BBA680243B7
:1030C00040339B000B445A60002318461437BD461A
:1030D0005DF8047B704780B483B000AF78600B4626
:1030E0007B807B681B687A885A62002318460C37FD
:1030F000BD465DF8047B704780B483B000AF786054
:103100000B46FB7000BF0C37BD465DF8047B704773
:1031100080B586B000AF78607B68002B01D10123B9
:1031200067E27B681B6803F00103002B75D0884BB6
:103130009B6803F00C03042B0CD0854B9B6803F0B9
:103140000C03082B12D1824B5B6803F48003B3F5A8
:10315000800F0BD17E4B1B6803F40033002B5BD038
:103160007B685B68002B57D1012342E27B685B6878
:10317000B3F5803F06D1764B1B68754A43F4803324
:1031800013601DE07B685B68B3F5A02F0CD1704B1A
:103190001B686F4A43F4802313606D4B1B686C4AB5
:1031A00043F4803313600BE0694B1B68684A23F4D7
:1031B00080331360664B1B68654A23F480231360D9
:1031C0007B685B68002B13D0FEF700F9386108E0DC
:1031D000FEF7FCF802463B69D31A642B01D903239E
:1031E00007E25B4B1B6803F40033002BF0D014E0C4
:1031F000FEF7ECF8386108E0FEF7E8F802463B69B4
:10320000D31A642B01D90323F3E1514B1B6803F458
:103210000033002BF0D100E000BF7B681B6803F097
:103220000203002B63D04A4B9B6803F00C03002B76
:103230000BD0474B9B6803F00C03082B1CD1444B6D
:103240005B6803F48003002B16D1414B1B6803F02D
:103250000203002B05D07B68DB68012B01D0012322
:10326000C7E13B4B1B6823F0F8027B681B69DB005E
:10327000374913430B603AE07B68DB68002B20D0B2
:10328000344B01221A60FEF7A1F8386108E0FEF71E
:103290009DF802463B69D31A022B01D90323A8E10A
:1032A0002B4B1B6803F00203002BF0D0284B1B684C
:1032B00023F0F8027B681B69DB00254913430B6090
:1032C00015E0244B00221A60FEF780F8386108E010
:1032D000FEF77CF802463B69D31A022B01D903237F
:1032E00087E11B4B1B6803F00203002BF0D17B68C6
:1032F0001B6803F00803002B36D07B685B69002B4A
:1033000016D0154B01221A60FEF760F8386108E00C
:10331000FEF75CF802463B69D31A022B01D903235E
:1033200067E10B4B5B6F03F00203002BF0D01BE057
:10333000094B00221A60FEF749F838610EE0FEF7EB
:1033400045F802463B69D31A022B07D9032350E103
:103350000038024000004742800E4742884B5B6FB6
:1033600003F00203002BEAD17B681B6803F004031F
:10337000002B00F097800023FB75814B1B6C03F042
:103380008053002B0FD10023BB607D4B1B6C7C4A0C
:1033900043F0805313647A4B1B6C03F08053BB6083
:1033A000BB680123FB75774B1B6803F48073002B0C
:1033B00018D1744B1B68734A43F480731360FEF793
:1033C00005F8386108E0FEF701F802463B69D31AB8
:1033D000022B01D903230CE16A4B1B6803F48073B1
:1033E000002BF0D07B689B68012B06D1644B1B6FD0
:1033F000634A43F0010313671CE07B689B68052B5D
:103400000CD15F4B1B6F5E4A43F0040313675C4BA8
:103410001B6F5B4A43F0010313670BE0584B1B6FB4
:10342000574A23F001031367554B1B6F544A23F08F
:10343000040313677B689B68002B15D0FDF7C6FF5C
:1034400038610AE0FDF7C2FF02463B69D31A41F238
:103450008832934201D90323CBE0494B1B6F03F021
:103460000203002BEED014E0FDF7B0FF38610AE054
:10347000FDF7ACFF02463B69D31A41F28832934212
:1034800001D90323B5E03E4B1B6F03F00203002B71
:10349000EED1FB7D012B05D1394B1B6C384A23F053
:1034A000805313647B689B69002B00F0A180344B30
:1034B0009B6803F00C03082B5CD07B689B69022B94
:1034C00041D1314B00221A60FDF780FF386108E0DE
:1034D000FDF77CFF02463B69D31A022B01D9032377
:1034E00087E0274B1B6803F00073002BF0D17B684B
:1034F000DA697B681B6A1A437B685B6A9B011A4323
:103500007B689B6A5B08013B1B041A437B68DB6A90
:103510001B061B4913434B601B4B01221A60FDF72E
:1035200055FF386108E0FDF751FF02463B69D31AA9
:10353000022B01D903235CE0114B1B6803F00073DD
:10354000002BF0D054E0104B00221A60FDF73EFF34
:10355000386108E0FDF73AFF02463B69D31A022BB7
:1035600001D9032345E0064B1B6803F00073002BD1
:10357000F0D13DE07B689B69012B07D1012338E046
:103580000038024000700040600047421B4B5B68FF
:10359000FB607B689B69012B28D0FB6803F48002E9
:1035A0007B68DB699A4221D1FB6803F03F027B68AC
:1035B0001B6A9A421AD1FA6847F6C07313407A68B8
:1035C000526A9201934211D1FB6803F440327B6846
:1035D0009B6A5B08013B1B049A4207D1FB6803F01E
:1035E00070627B68DB6A1B069A4201D0012300E00F
:1035F000002318461837BD4680BD00BF0038024082
:1036000080B584B000AF786039607B68002B01D151
:103610000123CCE0684B1B6803F007033A689A4229
:103620000CD9654B3A68D2B21A70634B1B6803F031
:1036300007033A689A4201D00123B8E07B681B680F
:1036400003F00203002B20D07B681B6803F0040307
:10365000002B05D0594B9B68584A43F4E0539360C4
:103660007B681B6803F00803002B05D0534B9B6855
:10367000524A43F460439360504B9B6823F0F0023E
:103680007B689B684D4913438B607B681B6803F024
:103690000103002B44D07B685B68012B07D1474BAB
:1036A0001B6803F40033002B19D101237FE07B68F2
:1036B0005B68022B03D07B685B68032B07D13F4B11
:1036C0001B6803F00073002B09D101236FE03B4B13
:1036D0001B6803F00203002B01D1012367E0374B85
:1036E0009B6823F003027B685B68344913438B605B
:1036F000FDF76CFEF8600AE0FDF768FE0246FB6825
:10370000D31A41F28832934201D903234FE02B4B65
:103710009B6803F00C027B685B689B009A42EBD1CC
:10372000254B1B6803F007033A689A420CD2224BE0
:103730003A68D2B21A70204B1B6803F007033A684C
:103740009A4201D0012332E07B681B6803F0040336
:10375000002B08D0194B9B6823F4E0527B68DB6890
:10376000164913438B607B681B6803F00803002B2A
:1037700009D0124B9B6823F460427B681B69DB0015
:103780000E4913438B6000F021F802460B4B9B68F7
:103790001B0903F00F030A49CB5C22FA03F3094A21
:1037A0001360094B1B681846FDF7CCFD0023184633
:1037B0001037BD4680BD00BF003C024000380240CB
:1037C000DC90000800000020040000202DE9B04F2C
:1037D00090B000AF00237B630023FB6300233B63B7
:1037E0000023BB63594B9B6803F00C03082B0DD0DF
:1037F000082B00F2A180002B02D0042B03D09BE009
:10380000534BBB639BE0534BBB6398E04F4B5B68F0
:1038100003F03F037B634D4B5B6803F48003002B95
:1038200028D04A4B5B689B0900223B627A623B6A64
:10383000C3F308000021474B03FB01F2002300FB08
:1038400003F31344434AA0FB0212FA620A46BA6227
:10385000FA6A1344FB627B6B0022BB61FA61D7E911
:103860000623D7E90A01FCF70BFD02460B46134677
:10387000FB6353E0354B5B689B0900223B617A6137
:103880003B69C3F3080A4FF0000B52465B464FF00A
:1038900000004FF00001590141EAD2615001024697
:1038A0000B46B2EB0A0863EB0B094FF000024FF036
:1038B00000034FEA891343EA98634FEA8812B2EB98
:1038C000080463EB09054FF000024FF00003EB0022
:1038D00043EA5473E20014461D4614EB0A033B60AE
:1038E00045EB0B037B604FF000024FF00003D7E97C
:1038F000004529468B02214643EA915321468A021C
:10390000104619467B6B0022BB60FA60D7E90223A0
:10391000FCF7B6FC02460B461346FB630B4B5B6899
:103920001B0C03F0030301335B003B63FA6B3B6B3F
:10393000B2FBF3F3BB6302E0054BBB6300BFBB6BA1
:1039400018464037BD46BDE8B08F00BF0038024082
:103950000024F40040787D0180B400AF034B1B6865
:103960001846BD465DF8047B704700BF000000208C
:1039700080B500AFFFF7F0FF0246054B9B689B0A3E
:1039800003F007030349CB5C22FA03F3184680BD1A
:1039900000380240EC90000880B500AFFFF7DCFF74
:1039A0000246054B9B685B0B03F007030349CB5CA6
:1039B00022FA03F3184680BD00380240EC9000085C
:1039C00080B582B000AF78607B68002B01D1012305
:1039D0003FE07B6893F83D30DBB2002B06D17B687B
:1039E000002283F83C207868FDF758FB7B6824228E
:1039F00083F83D207B681B68DA687B681B6822F4CB
:103A00000052DA60786800F06DFA7B681B681A690A
:103A10007B681B6822F490421A617B681B685A69B4
:103A20007B681B6822F02A025A617B681B68DA688F
:103A30007B681B6842F40052DA607B6800221A64DB
:103A40007B68202283F83D207B68202283F83E207B
:103A5000002318460837BD4680BD80B582B000AF50
:103A6000786039607B68002B01D1012357E07B68C7
:103A700093F83D30DBB2002B06D17B68002283F83F
:103A80003C207868FDF70AFB7B68242283F83D2000
:103A90007B681B68DA687B681B6822F40052DA6076
:103AA000786800F01FFA7B681B681A697B681B68DE
:103AB00022F400621A617B681B685A697B681B6884
:103AC00022F02A025A617B681B681A697B681B68AE
:103AD00042F480421A617B681B681A697B681B6824
:103AE00022F020021A617B681B6819697B681B68D9
:103AF0003A680A431A617B681B68DA687B681B684E
:103B000042F40052DA607B6800221A647B6820224B
:103B100083F83D207B68202283F83E20002318464E
:103B20000837BD4680BD80B58AB002AFF860B96085
:103B30003B601346FB8000237B61FB6893F83D30BC
:103B4000DBB2202B7CD1BB68002B02D0FB88002B82
:103B500001D1012375E0FB6893F83C30012B01D1C2
:103B600002236EE0FB68012283F83C20FB68002200
:103B70001A64FB68212283F83D20FDF727FC786159
:103B8000FB68FA889A84FB68FA88DA84FB689B6889
:103B9000B3F5805F08D1FB681B69002B04D10023BB
:103BA000FB61BB68BB6103E0BB68FB610023BB61D9
:103BB000FB68002283F83C202AE03B6800937B6985
:103BC00000228021F86800F01EF90346002B01D086
:103BD000032336E0FB69002B0BD1BB691B881A4617
:103BE000FB681B68C2F308025A60BB690233BB6101
:103BF00007E0FB691A78FB681B685A60FB690133B0
:103C0000FB61FB68DB8C9BB2013B9AB2FB68DA84F8
:103C1000FB68DB8C9BB2002BCFD13B6800937B69A8
:103C200000224021F86800F0EEF80346002B01D096
:103C3000032306E0FB68202283F83D20002300E0F8
:103C4000022318462037BD4680BD80B58AB002AF3A
:103C5000F860B9603B601346FB8000237B61FB6822
:103C600093F83E30DBB2202B40F08C80BB68002BF9
:103C700002D0FB88002B01D1012384E0FB6893F87C
:103C80003C30012B01D102237DE0FB68012283F847
:103C90003C20FB6800221A64FB68222283F83E2045
:103CA000FB6800221A63FDF791FB7861FB68FA88D4
:103CB0009A85FB68FA88DA85FB689B68B3F5805FB4
:103CC00008D1FB681B69002B04D10023FB61BB6892
:103CD000BB6103E0BB68FB610023BB61FB680022A2
:103CE00083F83C2043E03B6800937B69002220215D
:103CF000F86800F088F80346002B01D0032342E067
:103D0000FB69002B0CD1FB681B685B689BB2C3F39B
:103D100008039AB2BB691A80BB690233BB611FE01A
:103D2000FB689B68B3F5805F07D0FB689B68002B3E
:103D30000AD1FB681B69002B06D1FB681B685B6816
:103D4000DAB2FB691A7008E0FB681B685B68DBB2DB
:103D500003F07F03DAB2FB691A70FB690133FB6180
:103D6000FB68DB8D9BB2013B9AB2FB68DA85FB688E
:103D7000DB8D9BB2002BB6D1FB68202283F83E205E
:103D8000002300E0022318462037BD4680BD80B4E2
:103D900089B000AF78607B6893F83C30012B01D18B
:103DA00002232AE07B68012283F83C207B682422DE
:103DB00083F83D207B681B680C33FB60FB6853E88D
:103DC000003FBB60BB6843F00103FB617B681B687D
:103DD0000C33FA69BA617B617969BA6941E80023F9
:103DE0003B613B69002BE5D17B68202283F83D20B5
:103DF0007B68002283F83C20002318462437BD4608
:103E00005DF8047B704780B590B000AFF860B96092
:103E10003B601346FB7150E0BB6CB3F1FF3F4CD0ED
:103E2000BB6C002B07D0FDF7D1FA02463B68D31AD2
:103E3000BA6C9A4241D2FB681B680C33BB62BB6A06
:103E400053E8003F7B627B6A23F4D073FB63FB681B
:103E50001B680C33FA6B7A633B63396B7A6B41E80E
:103E60000023FB62FB6A002BE5D1FB681B6814335F
:103E70007B617B6953E8003F3B613B6923F00103B1
:103E8000BB63FB681B681433BA6B3A62FB61F96968
:103E90003A6A41E80023BB61BB69002BE5D1FB68AE
:103EA000202283F83D20FB68202283F83E20FB6817
:103EB000002283F83C2003230FE0FB681B681A688C
:103EC000BB681340BA689A420CBF01230023DBB2DF
:103ED0001A46FB799A429FD0002318464037BD46C8
:103EE00080BD00002DE9B04FC0B000AFC7F8F400AE
:103EF000D7F8F4301B681B6923F44050D7F8F4302E
:103F0000D968D7F8F4301A6840EA01031361D7F88A
:103F1000F4309A68D7F8F4301B691A43D7F8F430B4
:103F20005B691A43D7F8F430DB691343C7F8F830FC
:103F3000D7F8F4301B68DB6823F4164121F00C013C
:103F4000D7F8F4301A68D7F8F8300B43D360D7F8B5
:103F5000F4301B685B6923F44070D7F8F43099693A
:103F6000D7F8F4301A6840EA01035361D7F8F43007
:103F70001A688F4B9A4205D0D7F8F4301A688D4BE7
:103F80009A4204D1FFF708FDC7F8FC0003E0FFF7F1
:103F9000EFFCC7F8FC00D7F8F430DB69B3F5004F4D
:103FA00040F00C81D7F8FC300022C7F8E830C7F8A1
:103FB000EC20D7E93A4522462B469118B9655B417A
:103FC000FB65D7E91623214612EB0108294643EB8E
:103FD00001094FF000024FF000034FEAC90343EA22
:103FE00058734FEAC80290469946234618EB0303DC
:103FF000C7F8E0302B4649EB0303C7F8E430D7F8A5
:10400000F4305B680022C7F8D830C7F8DC20D7E965
:1040100036120B46DB183B65134642EB03037B6508
:10402000D7E91423D7E93801FCF72AF902460B46F1
:10403000614BA3FB02235B091C01D7F8FC30002273
:10404000C7F8D030C7F8D420D7E9348942464B4668
:104050009118B9645B41FB64D7E91223414612EB26
:10406000010A494643EB010B4FF000024FF00003F9
:104070004FEACB0343EA5A734FEACA0292469B4681
:1040800043461AEB0303C7F8C8304B464BEB030318
:10409000C7F8CC30D7F8F4305B680022C7F8C030DE
:1040A000C7F8C420D7E930120B46DB183B6413462F
:1040B00042EB03037B64D7E91023D7E93201FCF715
:1040C000DFF802460B4611463B4BA3FB01235B097D
:1040D000642202FB03F3CB1ADB0003F13202364BFE
:1040E000A3FB02235B095B0003F4F8731C44D7F8BD
:1040F000FC300022C7F8B830C7F8BC20D7E92E89B9
:1041000042464B469118B9635B41FB63D7E90E23E6
:1041100041465118396349464B417B634FF00002D9
:104120004FF00003D7E90CAB5946CB00514643EAA8
:1041300051735146CA0010461946034642469B1821
:10414000C7F8B0304B460A4642EB0303C7F8B43019
:10415000D7F8F4305B680022C7F8A830C7F8AC2065
:10416000D7E92A120B46DB18BB62134642EB030366
:10417000FB62D7E90A23D7E92C01FCF781F8024654
:104180000B460D4BA3FB02135B09642101FB03F3F8
:10419000D31ADB003233084AA2FB03235B0903F086
:1041A0000702D7F8F4301B6822449A6005E100BF8B
:1041B00000100140001401401F85EB51D7F8FC307E
:1041C0000022C7F8A030C7F8A420D7E928894246C2
:1041D0004B46911839625B417B62D7E9082341461F
:1041E0005418494643EB01054FF000024FF000031D
:1041F000EB0043EA5473E20014461D464346E318BD
:10420000C7F898304B4645EB0303C7F89C30D7F806
:10421000F4305B680022C7F89030C7F894204FF064
:1042200000024FF00003D7E9244529468B002146C0
:1042300043EA917321468A00D7E92601FCF720F86A
:1042400002460B46604BA3FB02235B091C01D7F817
:10425000FC300022C7F88830C7F88C20D7E92289C3
:1042600042464B469118B9615B41FB61D7E9062391
:1042700041465118396149464B417B614FF000027C
:104280004FF00003D7E904AB5946CB00514643EA4F
:1042900051735146CA0010461946034642469B18C0
:1042A000C7F880304B460A4642EB0303C7F8843018
:1042B000D7F8F4305B680022BB67FA674FF0000262
:1042C0004FF00003D7E91E8949468B00414643EA77
:1042D000917341468A00D7E92001FBF7D1FF0246DE
:1042E0000B46394BA3FB02135B09642101FB03F36B
:1042F000D31A1B013233344AA2FB03235B0903F0B8
:10430000F0031C44D7F8FC3000223B677A67D7E9FA
:104310001C8942464B469118B9605B41FB60D7E966
:10432000022341465118396049464B417B604FF0AA
:1043300000024FF00003D7E900AB5946CB005146CD
:1043400043EA51735146CA00104619460346424695
:104350009B18BB664B460A4642EB0303FB66D7F845
:10436000F4305B6800223B667A664FF000024FF043
:104370000003D7E9188949468B00414643EA917307
:1043800041468A00D7E91A01FBF77AFF02460B463D
:104390000D4BA3FB02135B09642101FB03F3D31A4A
:1043A0001B013233084AA2FB03235B0903F00F020F
:1043B000D7F8F4301B6822449A6000BF07F5807775
:1043C000BD46BDE8B08F00BF1F85EB5184B080B5FE
:1043D00084B000AF786007F11C0080E80E003B6BF2
:1043E000012B22D17B689B6B23F480327B689A631C
:1043F0007B68DB6823F4840323F040037A68D3608E
:104400007B68DB6823F440127B68DA60FB6C012B6D
:1044100005D17B68DB6843F480127B68DA607868DA
:1044200001F0EEFB0346FB731AE07B68DB6843F0A8
:1044300040027B68DA60786801F0E2FB0346FB73B8
:104440003B6C002B06D17B689B6B43F480327B680E
:104450009A6305E07B689B6B23F480327B689A63E8
:10446000BB6A012B0BD17B689B6843F006027B681B
:104470009A607B689B6843F020027B689A60FB7BB4
:1044800018461037BD46BDE8804004B070470000B4
:1044900080B487B000AFF860B9601346FB71FB7958
:1044A000022B65D1BB68414A934206D9BB68404A9A
:1044B000934202D20F237B6162E0BB683C4A934285
:1044C00006D3BB683B4A934202D20E237B6157E07E
:1044D000BB68384A934206D3BB68374A934202D23C
:1044E0000D237B614CE0BB68334A934206D3BB6823
:1044F000324A934202D80C237B6141E0BB682F4AC9
:10450000934206D9BB682E4A934202D80B237B61A3
:1045100036E0BB682A4A934206D9BB68294A9342CF
:1045200002D80A237B612BE0BB68264A934206D956
:10453000BB68254A934202D209237B6120E0BB6815
:10454000214A934206D3BB68204A934202D80823EB
:104550007B6115E0BB681D4A934206D9BB681C4AC3
:10456000934202D207237B610AE006237B6107E0C6
:10457000FB79002B02D109237B6101E009237B61D8
:10458000FB68DB6823F47052FB68DA60FB68DA686A
:104590007B699B0203F470531A43FB68DA600023C3
:1045A00018461C37BD465DF8047B7047BFACD80089
:1045B000C0E1E4000024F400807306019F491A0161
:1045C000FF2C31013FA44C0100366E011FABA60148
:1045D0000048E80180B483B000AF78607B689B68D6
:1045E00043F001027B689A60002318460C37BD46F1
:1045F0005DF8047B704780B483B000AF78607B685F
:104600009B6823F001027B689A60002318460C37F0
:10461000BD465DF8047B704780B584B000AF78601C
:104620000B46FB700023FB607B68DB6823F0C04215
:104630007B68DA60FB78012B15D17B68DB6843F07F
:1046400000527B68DA600120FCF7CCFEFB68013386
:10465000FB60786801F045FA0346012B1ED0FB6829
:10466000312BF0D91AE0FB78002B15D17B68DB6881
:1046700043F080427B68DA600120FCF7B3FEFB6800
:104680000133FB60786801F02CFA0346002B05D05B
:10469000FB68312BF0D901E0012305E0FB68322BE8
:1046A00001D1012300E0002318461037BD4680BD2C
:1046B00084B080B586B000AF786007F1240080E850
:1046C0000E000023FB757B68FB6000233B6109E063
:1046D0007A683B6940339B00134400225A603B696F
:1046E00001333B613B690E2BF2D9FB6C002B1CD1D3
:1046F000FB6803F500635B68FA6802F5006243F04B
:10470000020353607B689B6B43F400127B689A63DF
:104710007B689B6B23F400227B689A637B689B6BAE
:1047200023F480227B689A630BE07B689B6B23F405
:1047300000127B689A637B689B6B43F400227B6862
:104740009A63FB6803F560631A4600231360FB68F5
:1047500003F500631946FB6803F500631A460B680E
:104760001360BB6B012B0CD1FB6A002B04D1002121
:10477000786800F065F908E00121786800F060F9D8
:1047800003E00321786800F05BF91021786800F0FD
:10479000F3F80346002B01D00123FB75786800F085
:1047A0001FF90346002B01D00123FB75FB6803F5BD
:1047B00000631A4600231361FB6803F500631A4681
:1047C00000235361FB6803F500631A460023D3619D
:1047D00000233B6143E03B695A01FB68134403F546
:1047E00010631B6803F00043B3F1004F18D13B691D
:1047F000002B0AD13B695A01FB68134403F510638F
:104800001A464FF00063136013E03B695A01FB68DE
:10481000134403F510631A464FF09043136008E009
:104820003B695A01FB68134403F510631A460023E1
:1048300013603B695A01FB68134403F510631A4681
:10484000002313613B695A01FB68134403F51063AD
:104850001A464FF67F3393603B6901333B617B6AB5
:104860003A699A42B7D300233B6143E03B695A015E
:10487000FB68134403F530631B6803F00043B3F196
:10488000004F18D13B69002B0AD13B695A01FB68E4
:10489000134403F530631A464FF00063136013E0CE
:1048A0003B695A01FB68134403F530631A464FF025
:1048B0009043136008E03B695A01FB68134403F519
:1048C00030631A46002313603B695A01FB681344A6
:1048D00003F530631A46002313613B695A01FB68F4
:1048E000134403F530631A464FF67F3393603B69F8
:1048F00001333B617B6A3A699A42B7D3FB6803F59F
:1049000000631B69FA6802F5006223F48073136187
:104910007B6800229A617B686FF080425A613B6B32
:10492000002B05D17B689B6943F010027B689A617C
:104930007B689A690F4B13437A689361FB6B002B7A
:1049400005D07B689B6943F008027B689A61FB6C29
:10495000012B07D17B689B6943F0804343F004033C
:104960007A689361FB7D18461837BD46BDE88040E4
:1049700004B0704700383C8080B485B000AF7860E8
:1049800039600023FB60FB680133FB60FB68134A5E
:10499000934201D903231BE07B681B69002BF2DAE9
:1049A0000023FB603B689B0143F020027B681A6197
:1049B000FB680133FB60FB68084A934201D903237B
:1049C00006E07B681B6903F02003202BF0D0002356
:1049D00018461437BD465DF8047B7047400D030050
:1049E00080B485B000AF78600023FB60FB680133C2
:1049F000FB60FB68114A934201D9032318E07B68EE
:104A00001B69002BF2DA0023FB607B6810221A611D
:104A1000FB680133FB60FB68084A934201D903231A
:104A200006E07B681B6903F01003102BF0D0002315
:104A300018461437BD465DF8047B7047400D0300EF
:104A400080B485B000AF78600B46FB707B68FB607C
:104A5000FB6803F500631A68FB78F96801F50061EB
:104A600013430B60002318461437BD465DF8047BE2
:104A7000704780B487B000AF78607B683B613B696A
:104A800003F500639B6803F00603FB60FB68002BE3
:104A900002D10023FB750AE0FB68022B02D0FB6801
:104AA000062B02D10223FB7501E00F23FB75FB7D72
:104AB00018461C37BD465DF8047B704780B485B04E
:104AC00000AF786039607B68FB603B681B78BB6037
:104AD0003B685B78012B3AD1FB6803F50063DA6928
:104AE0003B681B7803F00F03012101FA03F39BB22B
:104AF000F96801F500611343CB61BB685A01FB689B
:104B0000134403F510631B6803F40043002B55D1D5
:104B1000BB685A01FB68134403F510631A683B68CD
:104B2000DB68C3F30A013B681B799B041943BB682C
:104B30009B050B431343BA685101FA680A4402F516
:104B4000106243F0805343F40043136036E0FB6887
:104B500003F50063DA693B681B7803F00F0301215A
:104B600001FA03F31B04F96801F500611343CB61FB
:104B7000BB685A01FB68134403F530631B6803F4F8
:104B80000043002B1AD1BB685A01FB68134403F59C
:104B900030631A683B68DB68C3F30A013B681B7922
:104BA0009B040B431343BA685101FA680A4402F5A7
:104BB000306243F0805343F40043136000231846EF
:104BC0001437BD465DF8047B7047000080B485B0A3
:104BD00000AF786039607B68FB603B681B78BB6026
:104BE0003B685B78012B61D1BB685A01FB681344B9
:104BF00003F510631B6803F00043B3F1004F1FD1AE
:104C0000BB685A01FB68134403F510631B68BA685C
:104C10005101FA680A4402F5106243F00063136020
:104C2000BB685A01FB68134403F510631B68BA683C
:104C30005101FA680A4402F5106243F080431360A0
:104C4000FB6803F50063DA6B3B681B7803F00F0326
:104C5000012101FA03F39BB2DB43F96801F500611E
:104C60001340CB63FB6803F50063DA693B681B788C
:104C700003F00F03012101FA03F39BB2DB43F96850
:104C800001F500611340CB61BB685A01FB68134416
:104C900003F510631A68BB685901FB680B4403F500
:104CA00010631946354B13400B6060E0BB685A0136
:104CB000FB68134403F530631B6803F00043B3F152
:104CC000004F1FD1BB685A01FB68134403F53063E2
:104CD0001B68BA685101FA680A4402F5306243F071
:104CE00000631360BB685A01FB68134403F530632B
:104CF0001B68BA685101FA680A4402F5306243F051
:104D000080431360FB6803F50063DA6B3B681B7834
:104D100003F00F03012101FA03F31B04DB43F968DD
:104D200001F500611340CB63FB6803F50063DA69AA
:104D30003B681B7803F00F03012101FA03F31B0406
:104D4000DB43F96801F500611340CB61BB685A0190
:104D5000FB68134403F530631A68BB685901FB68AC
:104D60000B4403F530631946054B13400B600023D9
:104D700018461437BD465DF8047B7047007833EC65
:104D80000078F3EF80B58AB002AFF860B9601346DF
:104D9000FB71FB68FB61BB681B78BB61BB685B7820
:104DA000012B40F05C81BB689B69002B32D1BB6951
:104DB0005A01FB69134403F510631B69BA69510179
:104DC000FA690A4402F5106223F0FF5323F4C0137A
:104DD0001361BB695A01FB69134403F510631B6936
:104DE000BA695101FA690A4402F5106243F40023DA
:104DF0001361BB695A01FB69134403F510631B6916
:104E0000BA695101FA690A4402F51062DB0CDB044D
:104E1000136174E0BB695A01FB69134403F5106325
:104E20001B69BA695101FA690A4402F51062DB0C88
:104E3000DB041361BB695A01FB69134403F510637A
:104E40001B69BA695101FA690A4402F5106223F03C
:104E5000FF5323F4C0131361BB695A01FB69134468
:104E600003F510631A69BB689969BB68DB680B447A
:104E7000591EBB68DB68B1FBF3F3D9049D4B0B40B3
:104E8000B9694801F969014401F5106113430B61E7
:104E9000BB695A01FB69134403F510631A69BB68C7
:104EA0009B69C3F31203B9694801F969014401F52B
:104EB000106113430B61BB681B79012B1FD1BB69C8
:104EC0005A01FB69134403F510631B69BA69510168
:104ED000FA690A4402F5106223F0C0431361BB690A
:104EE0005A01FB69134403F510631B69BA69510148
:104EF000FA690A4402F5106243F000531361FB792A
:104F0000012B4BD1BB685B69002B09D0BB695A01EF
:104F1000FB69134403F510631A46BB685B69536170
:104F2000BB681B79012B28D1FB6903F500639B68E3
:104F300003F48073002B10D1BB695A01FB69134441
:104F400003F510631B68BA695101FA690A4402F556
:104F5000106243F0005313600FE0BB695A01FB6914
:104F6000134403F510631B68BA695101FA690A44D6
:104F700002F5106243F080531360BB695A01FB696C
:104F8000134403F510631B68BA695101FA690A44B6
:104F900002F5106243F00443136033E1BB695A0128
:104FA000FB69134403F510631B68BA695101FA6980
:104FB0000A4402F5106243F004431360BB681B7996
:104FC000012B15D0BB689B69002B00F01B81FB698E
:104FD00003F500635A6BBB681B7803F00F030121D4
:104FE00001FA03F3F96901F5006113434B6309E129
:104FF000FB6903F500639B6803F48073002B10D1F9
:10500000BB695A01FB69134403F510631B68BA6955
:105010005101FA690A4402F5106243F0005313602B
:105020000FE0BB695A01FB69134403F510631B6869
:10503000BA695101FA690A4402F5106243F08053DB
:105040001360BB681969BB681A78BB689B6998B222
:10505000FB7900930346F86800F0DEFAD2E0BB6902
:105060005A01FB69134403F530631B69BA695101A6
:10507000FA690A4402F53062DB0CDB041361BB6998
:105080005A01FB69134403F530631B69BA69510186
:10509000FA690A4402F5306223F0FF5323F4C01387
:1050A0001361BB689B69002B26D1BB695A01FB6960
:1050B000134403F530631A69BB68DB68C3F312035A
:1050C000B9694801F969014401F5306113430B6185
:1050D000BB695A01FB69134403F530631B69BA6964
:1050E0005101FA690A4402F5306243F40023136166
:1050F0003AE000BF0000F81FBB689A69BB68DB6834
:1051000013445A1EBB68DB68B2FBF3F3FB82BB6837
:10511000DB68FA8A03FB02F2BB68DA61BB695A01F9
:10512000FB69134403F530631A69FB8AD904384BD1
:105130000B40B9694801F969014401F53061134335
:105140000B61BB695A01FB69134403F530631A69AB
:10515000BB68DB69C3F31203B9694801F96901440B
:1051600001F5306113430B61FB79012B0DD1BB6855
:105170001B69002B09D0BB681969BB695A01FB691F
:10518000134403F530630A465A61BB681B79012B4F
:1051900028D1FB6903F500639B6803F48073002B3F
:1051A00010D1BB695A01FB69134403F530631B68D6
:1051B000BA695101FA690A4402F5306243F00053BA
:1051C00013600FE0BB695A01FB69134403F53063B8
:1051D0001B68BA695101FA690A4402F5306243F06A
:1051E00080531360BB695A01FB69134403F53063B4
:1051F0001B68BA695101FA690A4402F5306243F04A
:1052000004431360002318462037BD4680BD00BF0D
:105210000000F81F80B487B000AFF860B960134693
:10522000FB71FB687B61BB681B783B61BB685B788B
:10523000012B40F0CE80BB689B69002B32D13B69CB
:105240005A017B69134403F510631B693A695101E4
:105250007A690A4402F5106223F0FF5323F4C01365
:1052600013613B695A017B69134403F510631B69A1
:105270003A6951017A690A4402F5106243F4002345
:1052800013613B695A017B69134403F510631B6981
:105290003A6951017A690A4402F51062DB0CDB04B9
:1052A00013614EE03B695A017B69134403F51063B7
:1052B0001B693A6951017A690A4402F51062DB0CF4
:1052C000DB0413613B695A017B69134403F51063E6
:1052D0001B693A6951017A690A4402F5106223F0A8
:1052E000FF5323F4C0131361BB689A69BB68DB6882
:1052F0009A4203D9BB68DA68BB689A613B695A0174
:105300007B69134403F510631B693A6951017A699B
:105310000A4402F5106243F4002313613B695A0109
:105320007B69134403F510631A69BB689B69C3F377
:105330001203396948017969014401F51061134389
:105340000B61FB79012B1ED1BB685B69002B09D077
:105350003B695A017B69134403F510631A46BB6825
:105360005B6953613B695A017B69134403F5106320
:105370001B683A6951017A690A4402F5106243F0E8
:105380000443136097E03B695A017B69134403F5BA
:1053900010631B683A6951017A690A4402F5106288
:1053A00043F004431360BB689B69002B00F08380CB
:1053B0007B6903F500635A6BBB681B7803F00F032E
:1053C000012101FA03F3796901F5006113434B638D
:1053D00071E03B695A017B69134403F530631B6933
:1053E0003A6951017A690A4402F53062DB0CDB0448
:1053F00013613B695A017B69134403F530631B69F0
:105400003A6951017A690A4402F5306223F0FF5388
:1054100023F4C0131361BB689B69002B03D0BB68E6
:10542000DA68BB689A61BB68DA68BB68DA613B69B5
:105430005A017B69134403F530631B693A695101D2
:105440007A690A4402F5306243F4002313613B6930
:105450005A017B69134403F530631A69BB68DB6941
:10546000C3F31203396948017969014401F53061D8
:1054700013430B61FB79012B0DD1BB681B69002B1A
:1054800009D0BB6819693B695A017B69134403F56C
:1054900030630A465A613B695A017B69134403F53C
:1054A00030631B683A6951017A690A4402F5306237
:1054B00043F004431360002318461C37BD465DF8D3
:1054C000047B704780B487B000AF786039600023F8
:1054D000FB600023FB757B683B613B685B78012BBD
:1054E0004AD13B681B785A013B69134403F51063AA
:1054F0001B6803F00043B3F1004F40F086803B6827
:105500001B785A013B69134403F510631B683A6822
:10551000127851013A690A4402F5106243F00063BF
:1055200013603B681B785A013B69134403F5106311
:105530001B683A68127851013A690A4402F5106210
:1055400043F080431360FB680133FB60FB6842F269
:105550001072934202D90123FB7556E03B681B7819
:105560005A013B69134403F510631B6803F00043C1
:10557000B3F1004FE7D048E03B681B785A013B6924
:10558000134403F530631B6803F00043B3F1004F8D
:105590003BD13B681B785A013B69134403F53063E8
:1055A0001B683A68127851013A690A4402F5306280
:1055B00043F0006313603B681B785A013B69134456
:1055C00003F530631B683A68127851013A690A445E
:1055D00002F5306243F080431360FB680133FB60E7
:1055E000FB6842F21072934202D90123FB750CE072
:1055F0003B681B785A013B69134403F530631B6811
:1056000003F00043B3F1004FE7D0FB7D18461C3791
:10561000BD465DF8047B704780B489B000AFF86088
:10562000B96011461A460B46FB711346BB80FB68F6
:105630007B61BB68FB6197F82830002B23D1BB88C6
:1056400003339B083B610023BB6118E0FB791A031D
:105650007B69134403F580531A46FB691B6813608A
:10566000FB690133FB61FB690133FB61FB690133BA
:10567000FB61FB690133FB61BB690133BB61BA6943
:105680003B699A42E2D3002318462437BD465DF8B1
:10569000047B704780B48BB000AFF860B9601346EC
:1056A000FB80FB68BB61BB687B62FB889B089BB28D
:1056B0007B61FB8803F00303FB8300233B6214E060
:1056C000BB6903F580531A687B6A1A607B6A0133F1
:1056D0007B627B6A01337B627B6A01337B627B6A1C
:1056E00001337B623B6A01333B623A6A7B699A42CF
:1056F000E6D3FB8B002B1ED000233B62BB6903F576
:1057000080531A4607F1100312681A603A693B6A1F
:10571000DBB2DB0022FA03F3DAB27B6A1A703B6A6F
:1057200001333B627B6A01337B62FB8B013BFB8372
:10573000FB8B002BEAD17B6A18462C37BD465DF8FF
:10574000047B704780B485B000AF786039607B68B7
:10575000FB603B681B78BB603B685B78012B2CD1FE
:10576000BB685A01FB68134403F510631B68002BE8
:1057700012DBBB68002B0FD0BB685A01FB681344D7
:1057800003F510631B68BA685101FA680A4402F510
:10579000106223F080431360BB685A01FB68134416
:1057A00003F510631B68BA685101FA680A4402F5F0
:1057B000106243F4001313602BE0BB685A01FB68CE
:1057C000134403F530631B68002B12DBBB68002B0E
:1057D0000FD0BB685A01FB68134403F530631B68A4
:1057E000BA685101FA680A4402F5306223F0804336
:1057F0001360BB685A01FB68134403F530631B68F0
:10580000BA685101FA680A4402F5306243F40013A1
:105810001360002318461437BD465DF8047B7047BB
:1058200080B485B000AF786039607B68FB603B680E
:105830001B78BB603B685B78012B28D1BB685A01A1
:10584000FB68134403F510631B68BA685101FA68DA
:105850000A4402F5106223F4001313603B681B79BD
:10586000032B03D03B681B79022B38D1BB685A014C
:10587000FB68134403F510631B68BA685101FA68AA
:105880000A4402F5106243F08053136027E0BB68BE
:105890005A01FB68134403F530631B68BA68510171
:1058A000FA680A4402F5306223F4001313603B687F
:1058B0001B79032B03D03B681B79022B0FD1BB68EC
:1058C0005A01FB68134403F530631B68BA68510141
:1058D000FA680A4402F5306243F0805313600023F3
:1058E00018461437BD465DF8047B704780B485B018
:1058F00000AF78600B46FB707B68FB60FB6803F5CC
:1059000000631B68FA6802F5006223F4FE6313600B
:10591000FB6803F500631A68FB781B0103F4FE6360
:10592000F96801F5006113430B6000231846143732
:10593000BD465DF8047B704780B485B000AF7860E9
:105940007B68FB60FB6803F560631B68FA6802F51F
:10595000606223F003031360FB6803F500635B6878
:10596000FA6802F5006223F0020353600023184630
:105970001437BD465DF8047B704780B485B000AF36
:1059800078607B68FB60FB6803F560631B68FA68FE
:1059900002F5606223F003031360FB6803F5006304
:1059A0005B68FA6802F5006243F00203536000236B
:1059B00018461437BD465DF8047B704780B485B047
:1059C00000AF78607B685B69FB607B689B69FA6805
:1059D0001340FB60FB6818461437BD465DF8047B36
:1059E000704780B485B000AF78607B68FB60FB686F
:1059F00003F500639B69BB60FB6803F50063DB692B
:105A0000BA681340BB60BB681B0C18461437BD4610
:105A10005DF8047B704780B485B000AF78607B6828
:105A2000FB60FB6803F500639B69BB60FB6803F5E3
:105A30000063DB69BA681340BB60BB689BB2184661
:105A40001437BD465DF8047B704780B485B000AF65
:105A500078600B46FB707B68FB60FB785A01FB6843
:105A6000134403F530639B68BB60FB6803F5006378
:105A70005B69BA681340BB60BB6818461437BD4603
:105A80005DF8047B704780B487B000AF78600B4648
:105A9000FB707B687B617B6903F500631B693B617D
:105AA0007B6903F500635B6BFB60FB7803F00F031E
:105AB000FA6822FA03F3DB01DBB23A6913433B6174
:105AC000FB785A017B69134403F510639B683A69BC
:105AD0001340BB60BB6818461C37BD465DF8047BAD
