:020000040800F2
:1000000000000220990D0008210D0008270D0008AE
:100010002D0D0008330D0008390D00080000000008
:100020000000000000000000000000003F0D00087C
:100030004D0D0008000000005B0D0008690D000870
:10004000E90D0008E90D0008E90D0008E90D0008B8
:10005000E90D0008E90D0008E90D0008E90D0008A8
:10006000E90D0008E90D0008E90D0008E90D000898
:10007000E90D0008E90D0008E90D0008E90D000888
:10008000E90D0008E90D0008E90D00080000000076
:10009000000000000000000000000000E90D000862
:1000A000E90D0008E90D0008E90D0008E90D000858
:1000B000E90D0008E90D0008E90D0008E90D000848
:1000C000E90D0008E90D0008E90D0008E90D000838
:1000D000E90D0008E90D0008E90D00080000000026
:1000E000E90D0008E90D0008E90D00080000000016
:1000F000000000000000000000000000E90D000802
:1001000000000000E90D0008E90D0008E90D0008F5
:1001100000000000000000000000000000000000DF
:10012000E90D0008E90D0008E90D0008E90D0008D7
:10013000E90D0008000000000000000000000000C1
:10014000000000000000000000000000E90D0008B1
:10015000E90D0008E90D0008E90D0008E90D0008A7
:10016000E90D0008E90D0008000000000000000093
:10017000000000000000000000000000000000007F
:1001800000000000E90D0008000000000000000071
:08019000E90D0008E90D00086B
:1001980010B5054C237833B9044B13B10448AFF3B9
:1001A80000800123237010BD0C0000200000000017
:1001B800742E000808B5034B1BB103490348AFF37D
:1001C800008008BD0000000010000020742E000808
:1001D80053B94AB9002908BF00281CBF4FF0FF31A6
:1001E8004FF0FF3000F074B9ADF1080C6DE904CEA2
:1001F80000F006F8DDF804E0DDE9022304B07047FA
:100208002DE9F047089D04468E46002B4DD18A42C1
:10021800944669D9B2FA82F252B101FA02F3C2F1F4
:10022800200120FA01F10CFA02FC41EA030E944085
:100238004FEA1C48210CBEFBF8F61FFA8CF708FBA6
:1002480016E341EA034306FB07F199420AD91CEB7E
:10025800030306F1FF3080F01F81994240F21C81B0
:10026800023E63445B1AA4B2B3FBF8F008FB1033F8
:1002780044EA034400FB07F7A7420AD91CEB04042D
:1002880000F1FF3380F00A81A74240F207816444FD
:10029800023840EA0640E41B00261DB1D440002382
:1002A800C5E900433146BDE8F0878B4209D9002DE6
:1002B80000F0EF800026C5E9000130463146BDE870
:1002C800F087B3FA83F6002E4AD18B4202D38242DA
:1002D80000F2F980841A61EB030301209E46002D89
:1002E800E0D0C5E9004EDDE702B9FFDEB2FA82F2DE
:1002F800002A40F09280A1EB0C014FEA1C471FFA3C
:100308008CFE0126200CB1FBF7F307FB131140EA22
:1003180001410EFB03F0884208D91CEB010103F1EF
:10032800FF3802D2884200F2CB804346091AA4B2B1
:10033800B1FBF7F007FB101144EA01440EFB00FE85
:10034800A64508D91CEB040400F1FF3102D2A645EA
:1003580000F2BB800846A4EB0E0440EA03409CE789
:10036800C6F12007B34022FA07FC4CEA030C20FA36
:1003780007F401FA06F31C43F9404FEA1C4900FA56
:1003880006F3B1FBF9F8200C1FFA8CFE09FB1811D3
:1003980040EA014108FB0EF0884202FA06F20BD946
:1003A8001CEB010108F1FF3A80F08880884240F296
:1003B8008580A8F102086144091AA4B2B1FBF9F0DA
:1003C80009FB101144EA014100FB0EFE8E4508D9D5
:1003D8001CEB010100F1FF346CD28E456AD902385A
:1003E800614440EA0840A0FB0294A1EB0E01A1423F
:1003F800C846A64656D353D05DB1B3EB080261EBAD
:100408000E0101FA07F722FA06F3F1401F43C5E986
:10041800007100263146BDE8F087C2F12003D840BC
:100428000CFA02FC21FA03F3914001434FEA1C47FE
:100438001FFA8CFEB3FBF7F007FB10360B0C43EAF0
:10044800064300FB0EF69E4204FA02F408D91CEBA0
:10045800030300F1FF382FD29E422DD9023863449E
:100468009B1B89B2B3FBF7F607FB163341EA03413E
:1004780006FB0EF38B4208D91CEB010106F1FF388D
:1004880016D28B4214D9023E6144C91A46EA004684
:1004980038E72E46284605E70646E3E61846F8E616
:1004A8004B45A9D2B9EB020864EB0C0E0138A3E75F
:1004B8004646EAE7204694E74046D1E7D0467BE740
:1004C800023B614432E7304609E76444023842E7B8
:1004D800704700BFB0B594B000AF03460A46FB7141
:1004E8001346BB71624B07F134041D460FCD0FC490
:1004F8002B6823605F4A07F1280307CA03C31A80E1
:100508005B4B07F114041D460FCD0FC42B68236005
:10051800594A07F1080307CA03C31A80FB79002B5D
:1005280029D10023FB6422E0FB6C9B0050333B4441
:1005380053F81C0CFB6C5B0050333B4433F8283CED
:100548000022194600F04EFFFB6C9B0050333B44E1
:1005580053F83C0CFB6C5B0050333B4433F8483C8D
:100568000022194600F03EFFFB6C0133FB64FB6C74
:10057800042BD9DD78E0FB79002B72D0FB79052BB1
:100588006FD8FB79013BBB64BB79022B48D0022BA7
:1005980069DC002B02D0012B21D064E0BB6C9B00EE
:1005A80050333B4453F81C0CBB6C5B0050333B444A
:1005B80033F8283C0022194600F014FFBB6C9B005E
:1005C80050333B4453F83C0CBB6C5B0050333B440A
:1005D80033F8483C0022194600F004FF44E0BB6CA5
:1005E8009B0050333B4453F81C0CBB6C5B005033EE
:1005F8003B4433F8283C0122194600F0F3FEBB6C5B
:100608009B0050333B4453F83C0CBB6C5B005033AD
:100618003B4433F8483C0022194600F0E3FE23E04F
:10062800BB6C9B0050333B4453F81C0CBB6C5B0009
:1006380050333B4433F8283C0022194600F0D2FEE0
:10064800BB6C9B0050333B4453F83C0CBB6C5B00C9
:1006580050333B4433F8483C0122194600F0C2FEAF
:1006680002E000BF00E000BF5037BD46B0BD00BF8C
:100678008C2E0008A02E0008AC2E000880B582B091
:1006880000AF00F0AFFB00F053F800F06DF900F098
:10069800BBF800F0E7F800F00FF900F037F9012394
:1006A800FB713FE0FB7901211846FFF713FF4FF478
:1006B80000511E4800F0AFFE40F6B83000F004FCD0
:1006C8004FF40051194800F0A6FEFB7902211846A4
:1006D800FFF700FF4FF40051144800F09CFE40F66D
:1006E800B83000F0F1FB4FF40051104800F093FED1
:1006F800FB7900211846FFF7EDFE4FF47A7000F001
:10070800E3FB4FF40051094800F085FE002100206A
:10071800FFF7E0FE4FF40051044800F07CFEFB793F
:100728000133FB71FB79052BBCD9B8E700080240FF
:1007380080B594B000AF07F120033022002118469D
:1007480002F08CFB07F10C0300221A605A609A60D1
:10075800DA601A610023BB60294B1B6C284A43F0FE
:1007680080531364264B1B6C03F08053BB60BB683B
:1007780000237B60234B1B68224A43F440431360E9
:10078800204B1B6803F440437B607B6803233B6278
:100798004FF480337B620123FB6210233B63022307
:1007A800BB634FF48003FB630F233B6490237B649C
:1007B8000223BB640523FB6407F12003184601F0FC
:1007C800A7F80346002B01D000F068F90F23FB605F
:1007D80000233B6100237B610023BB610023FB6195
:1007E80007F10C030021184601F00AFB0346002B11
:1007F80001D000F053F900BF5037BD4680BD00BF9F
:10080800003802400070004080B500AF124B134A18
:100818001A60114B124A5A600F4B00229A600E4B15
:100828000022DA600C4B4FF480421A610A4B002216
:100838005A61094B00229A61074B0022DA61064B84
:1008480000221A62044800F001FE0346002B01D082
:1008580000F024F900BF80BD2800002000540040AB
:10086800A086010080B500AF114B124A1A60104BE8
:100878004FF4E1325A600E4B00229A600C4B002272
:10088800DA600B4B00221A61094B0C225A61084BA3
:1008980000229A61064B0022DA61054801F090FCBB
:1008A8000346002B01D000F0F9F800BF80BD00BF5F
:1008B8007C0000200010014080B500AF114B124AA7
:1008C8001A60104B4FF496425A600E4B00229A6001
:1008D8000C4B0022DA600B4B00221A61094B0C22E8
:1008E8005A61084B00229A61064B0022DA61002106
:1008F800044801F0B2FC0346002B01D000F0CEF80A
:1009080000BF80BDC00000200044004080B500AF9B
:10091800144B4FF0A0421A60124B04225A60114B3C
:100928000222DA600F4B00221A610E4B02229A61F2
:100938000C4B0022DA610B4B00221A62094B002291
:100948005A62084B0022DA62064B00221A630548F5
:1009580000F0C0FE0346002B01D000F09FF800BF56
:1009680080BD00BF0401002080B58AB000AF07F148
:10097800140300221A605A609A60DA601A61002330
:100988003B61424B1B6B414A43F0040313633F4BEB
:100998001B6B03F004033B613B690023FB603B4B8B
:1009A8001B6B3A4A43F080031363384B1B6B03F00D
:1009B8008003FB60FB680023BB60344B1B6B334A2E
:1009C80043F001031363314B1B6B03F00103BB605E
:1009D800BB6800237B602D4B1B6B2C4A43F0020342
:1009E80013632A4B1B6B03F002037B607B680022B6
:1009F8004FF40051264800F0F5FC0022F321254869
:100A080000F0F0FC002247F28751234800F0EAFC8E
:100A18004FF400537B610123BB610023FB6100237A
:100A28003B6207F114031946194800F057FBF323FA
:100A38007B610123BB610023FB6100233B6207F15B
:100A480014031946134800F049FB47F287537B61AA
:100A58000123BB610023FB6100233B6207F1140300
:100A680019460D4800F03AFB4FF400437B61002320
:100A7800BB610123FB6107F114031946064800F026
:100A88002DFB00BF2837BD4680BD00BF003802409F
:100A980000080240000002400004024080B400AF99
:100AA80072B600BFFEE7000080B483B000AF002339
:100AB8007B60104B5B6C0F4A43F4804353640D4BCF
:100AC8005B6C03F480437B607B6800233B60094BCD
:100AD8001B6C084A43F080531364064B1B6C03F0ED
:100AE80080533B603B6800BF0C37BD465DF8047B14
:100AF800704700BF0038024080B58AB000AF786008
:100B080007F1140300221A605A609A60DA601A61C9
:100B18007B681B68194A93422CD100233B61184B10
:100B28001B6B174A43F002031363154B1B6B03F04F
:100B380002033B613B694FF410737B611223BB6175
:100B48000023FB6103233B6204237B6207F1140348
:100B580019460C4800F0C2FA0023FB60084B1B6CD6
:100B6800074A43F400131364054B1B6C03F400138A
:100B7800FB60FB6800BF2837BD4680BD00540040BD
:100B8800003802400004024080B58CB000AF7860A5
:100B980007F11C0300221A605A609A60DA601A6131
:100BA8007B681B68324A93422DD10023BB61314BCD
:100BB8005B6C304A43F0100353642E4B5B6C03F0BC
:100BC8001003BB61BB6900237B612A4B1B6B294A5D
:100BD80043F001031363274B1B6B03F001037B6195
:100BE8007B694FF4C063FB6102233B6200237B6295
:100BF8000323BB620723FB6207F11C0319461E4847
:100C080000F06CFA30E07B681B681C4A93422BD1D9
:100C180000233B61174B1B6C164A43F400331364E3
:100C2800144B1B6C03F400333B613B690023FB60EE
:100C3800104B1B6B0F4A43F0010313630D4B1B6BE7
:100C480003F00103FB60FB680C23FB6102233B629A
:100C580000237B620323BB620723FB6207F11C03AB
:100C68001946054800F03AFA00BF3037BD4680BD46
:100C780000100140003802400000024000440040DB
:100C880080B58AB000AF786007F1140300221A60BB
:100C98005A609A60DA601A617B681B68B3F1A04FEA
:100CA80032D100233B611A4B1B6B194A43F00103F5
:100CB8001363174B1B6B03F001033B613B694FF454
:100CC800C0537B610223BB610023FB6103233B62AA
:100CD8000A237B6207F1140319460E4800F0FEF957
:100CE8000B4B5B6B0A4A43F0800353630023FB60A2
:100CF800074B5B6C064A43F480435364044B5B6CBC
:100D080003F48043FB60FB6800BF2837BD4680BD05
:100D1800003802400000024080B400AFFEE780B413
:100D280000AFFEE780B400AFFEE780B400AFFEE797
:100D380080B400AFFEE780B400AF00BFBD465DF8E9
:100D4800047B704780B400AF00BFBD465DF8047BEC
:100D5800704780B400AF00BFBD465DF8047B7047A4
:100D680080B500AF00F090F800BF80BD80B400AF40
:100D7800064BD3F88830054A43F47003C2F888302C
:100D880000BFBD465DF8047B704700BF00ED00E082
:100D9800DFF834D00D480E490E4A002302E0D4583B
:100DA800C4500433C4188C42F9D30B4A0B4C0023AB
:100DB80001E013600432A242FBD3FFF7D7FF02F031
:100DC80029F8FFF75BFC70470000022000000020B4
:100DD8000C000020E02E00080C0000201406002063
:100DE800FEE7000080B500AF0E4B1B680D4A43F4C8
:100DF800007313600B4B1B680A4A43F4806313604B
:100E0800084B1B68074A43F480731360032000F003
:100E180031F90F2000F008F8FFF746FE00231846C6
:100E280080BD00BF003C024080B582B000AF786052
:100E3800124B1A68124B1B7819464FF47A73B3FB9E
:100E4800F1F3B2FBF3F3184600F03BF90346002B2D
:100E580001D001230EE07B680F2B0AD800227968A5
:100E68004FF0FF3000F011F9064A7B681360002349
:100E780000E0012318460837BD4680BD0000002069
:100E8800080000200400002080B400AF064B1B7847
:100E98001A46064B1B681344044A136000BFBD463C
:100EA8005DF8047B704700BF080000201006002092
:100EB80080B400AF034B1B681846BD465DF8047B41
:100EC800704700BF1006002080B584B000AF78607E
:100ED800FFF7EEFFB8607B68FB60FB68B3F1FF3F8C
:100EE80005D00A4B1B781A46FB681344FB6000BF09
:100EF800FFF7DEFF0246BB68D31AFA689A42F7D8B2
:100F080000BF00BF1037BD4680BD00BF08000020ED
:100F180080B485B000AF78607B6803F00703FB609E
:100F28000C4BDB68BB60BA684FF6FF031340BB602D
:100F3800FB681A02BB68134343F0BF6343F40033F2
:100F4800BB60044ABB68D36000BF1437BD465DF878
:100F5800047B704700ED00E080B400AF044BDB6811
:100F68001B0A03F007031846BD465DF8047B70476B
:100F780000ED00E080B483B000AF03463960FB7138
:100F880097F90730002B0ADB3B68DAB20C4997F96E
:100F980007301201D2B20B4483F800230AE03B6801
:100FA800DAB20849FB7903F00F03043B1201D2B20D
:100FB8000B441A7600BF0C37BD465DF8047B7047BA
:100FC80000E100E000ED00E080B489B000AFF86017
:100FD800B9607A60FB6803F00703FB61FB69C3F142
:100FE8000703042B28BF0423BB61FB690433062BCA
:100FF80002D9FB69033B00E000237B614FF0FF321D
:10100800BB6902FA03F3DA43BB681A407B699A406A
:101018004FF0FF317B6901FA03F3D9437B680B403A
:10102800134318462437BD465DF8047B704700001B
:1010380080B582B000AF78607B68013BB3F1807FF8
:1010480001D301230FE00A4A7B68013B53600F215B
:101058004FF0FF30FFF78EFF054B00229A60044BDC
:1010680007221A60002318460837BD4680BD00BF16
:1010780010E000E080B582B000AF78607868FFF7D4
:1010880047FF00BF0837BD4680BD80B586B000AFBA
:101098000346B9607A60FB7300237B61FFF75CFF4E
:1010A80078617A68B9687869FFF78EFF024697F920
:1010B8000F3011461846FFF75DFF00BF1837BD46D1
:1010C80080BD80B582B000AF78607868FFF7B0FF68
:1010D800034618460837BD4680BD000080B489B075
:1010E80000AF7860396000237B6100233B610023F7
:1010F800BB610023FB6159E10122FB6902FA03F39A
:101108007B613B681B687A6913403B613A697B697C
:101118009A4240F048813B685B6803F00303012B67
:1011280005D03B685B6803F00303022B30D17B6872
:101138009B68BB61FB695B00032202FA03F3DB4394
:10114800BA691340BB613B68DA68FB695B0002FA65
:1011580003F3BA691343BB617B68BA699A607B6819
:101168005B68BB610122FB6902FA03F3DB43BA69DE
:101178001340BB613B685B681B0903F00102FB6914
:1011880002FA03F3BA691343BB617B68BA695A6010
:101198003B685B6803F00303032B17D07B68DB68AD
:1011A800BB61FB695B00032202FA03F3DB43BA6904
:1011B8001340BB613B689A68FB695B0002FA03F362
:1011C800BA691343BB617B68BA69DA603B685B68DC
:1011D80003F00303022B23D1FB69DA087B6808328A
:1011E80053F82230BB61FB6903F007039B000F2211
:1011F80002FA03F3DB43BA691340BB613B681A691F
:10120800FB6903F007039B0002FA03F3BA6913436F
:10121800BB61FB69DA087B680832B96943F82210B8
:101228007B681B68BB61FB695B00032202FA03F35E
:10123800DB43BA691340BB613B685B6803F0030298
:10124800FB695B0002FA03F3BA691343BB617B686D
:10125800BA691A603B685B6803F44033002B00F0FE
:10126800A2800023FB60574B5B6C564A43F48043D3
:101278005364544B5B6C03F48043FB60FB68524A35
:10128800FB699B08023352F82330BB61FB6903F00A
:1012980003039B000F2202FA03F3DB43BA691340EE
:1012A800BB617B68494A934219D07B68484A93429C
:1012B80013D07B68474A93420DD07B68464A9342D5
:1012C80007D07B68454A934201D1042308E00723ED
:1012D80006E0032304E0022302E0012300E00023E8
:1012E800FA6902F0030292009340BA691343BB61A2
:1012F8003549FB699B080233BA6941F82320384B0A
:101308009B68BB613B69DB43BA691340BB613B68BF
:101318005B6803F48013002B03D0BA693B6913435D
:10132800BB612F4ABB6993602D4BDB68BB613B698E
:10133800DB43BA691340BB613B685B6803F4001385
:10134800002B03D0BA693B691343BB61244ABB69CC
:10135800D360234B5B68BB613B69DB43BA691340CD
:10136800BB613B685B6803F40033002B03D0BA69A8
:101378003B691343BB611A4ABB695360184B1B682E
:10138800BB613B69DB43BA691340BB613B685B687F
:1013980003F48033002B03D0BA693B691343BB6164
:1013A8000F4ABB691360FB690133FB61FB690F2BB3
:1013B8007FF6A2AE00BF00BF2437BD465DF8047BB0
:1013C800704700BF0038024000380140000002406A
:1013D8000004024000080240000C024000100240D5
:1013E800003C014080B483B000AF78600B467B803E
:1013F80013467B707B78002B03D07A887B689A61D0
:1014080003E07B881A047B689A6100BF0C37BD46ED
:101418005DF8047B704780B485B000AF78600B46F8
:101428007B807B685B69FB607A88FB6813401A04E1
:10143800FB68D9437B880B401A437B689A6100BFDD
:101448001437BD465DF8047B7047000080B584B052
:1014580000AF78607B68002B01D101232BE17B680A
:1014680093F83D30DBB2002B06D17B68002283F86D
:101478003C207868FFF740FB7B68242283F83D20F6
:101488007B681B681A687B681B6822F001021A6077
:101498007B681B681A687B681B6842F400421A6004
:1014A8007B681B681A687B681B6822F400421A6014
:1014B80000F05EFEF8607B685B68814A934207D85B
:1014C800FB68804A934294BF01230023DBB206E005
:1014D800FB687D4A934294BF01230023DBB2002BB3
:1014E80001D00123E7E0FB68784AA2FB03239B0CA9
:1014F800BB607B681B685B6823F03F017B681B68E7
:10150800BA680A435A607B681B681B6A23F03F016C
:101518007B685B686A4A934202D8BB68013309E07A
:10152800BB684FF4967202FB03F3694AA2FB0323DC
:101538009B0901337A6812680B4313627B681B6846
:10154800DB6923F44F4222F0FF027B685B685C4949
:101558008B4219D8FB68591E7B685B685B00B1FB3E
:10156800F3F3591C40F6FC730B40002B0AD0FB68C0
:10157800591E7B685B685B00B1FBF3F30133C3F36F
:101588000B0351E004234FE07B689B68002B11D1CB
:10159800FB68581E7B6859680B465B000B44B0FB20
:1015A800F3F30133C3F30B03002B0CBF0123002318
:1015B800DBB212E0FB68581E7B6859680B469B003B
:1015C8000B4499000B44B0FBF3F30133C3F30B0353
:1015D800002B0CBF01230023DBB2002B01D0012319
:1015E80022E07B689B68002B0ED1FB68581E7B6845
:1015F80059680B465B000B44B0FBF3F30133C3F3AC
:101608000B0343F400430FE0FB68581E7B685968DE
:101618000B469B000B4499000B44B0FBF3F30133DA
:10162800C3F30B0343F44043796809681343CB6160
:101638007B681B681B6823F0C0017B68DA697B68DC
:101648001B6A1A437B681B680A431A607B681B681D
:101658009B6823F4034323F0FF037A6811697A68CF
:10166800D26811437A6812680B4393607B681B68E1
:10167800DB6823F0FF017B685A697B689B691A4322
:101688007B681B680A43DA607B681B681A687B689A
:101698001B6842F001021A607B6800221A647B68AA
:1016A800202283F83D207B6800221A637B68002291
:1016B80083F83E20002318461037BD4680BD00BF82
:1016C800A08601007F841E00FF083D0083DE1B43C7
:1016D800D34D6210F0B58FB00AAF78607B68002BED
:1016E80001D101230FE17B681B68BB607B6893F81D
:1016F800BD34DBB2002B06D17B68002283F8BC2402
:101708007868FFF7BDFA7B68032283F8BD24BB68BD
:10171800DB6B03F48073002B02D17B6800221A6113
:101728007B681B68184601F0D4F87B681B683B602F
:101738007E686D4606F110040FCC0FC50FCC0FC59F
:1017480094E8030085E80300331D0ECB386801F0E8
:101758005FF80346002B05D07B68022283F8BD247E
:101768000123D0E07B681B680021184601F0C2F80D
:101778000023FB734AE0FA7B79681346DB001344C5
:101788009B000B443D3301221A70FA7B796813469B
:10179800DB0013449B000B443C33FA7B1A70FA7B42
:1017A800FB7B98B279681346DB0013449B000B441B
:1017B800443302461A80FA7B79681346DB001344E7
:1017C8009B000B44403300221A70FA7B7968134659
:1017D800DB0013449B000B44483300221A60FA7B59
:1017E80079681346DB0013449B000B444C330022FA
:1017F8001A60FA7B79681346DB0013449B000B449C
:10180800543300221A60FB7B0133FB73FA7B7B683D
:101818005B689A42AFD30023FB7344E0FA7B796894
:101828001346DB0013449B000B4403F27D23002284
:101838001A70FA7B79681346DB0013449B000B444B
:1018480003F51F73FA7B1A70FA7B79681346DB007D
:1018580013449B000B4403F5207300221A70FA7B93
:1018680079681346DB0013449B000B4403F522738D
:1018780000221A60FA7B79681346DB0013449B0048
:101888000B4403F5237300221A60FA7B7968134628
:10189800DB0013449B000B4403F5257300221A60F8
:1018A800FB7B0133FB73FA7B7B685B689A42B5D399
:1018B8007B681B683B607E686D4606F110040FCCA0
:1018C8000FC50FCC0FC594E8030085E80300331D4E
:1018D8000ECB386801F05AF80346002B05D07B6818
:1018E800022283F8BD2401230DE07B68002283F8DF
:1018F80038207B68012283F8BD247B681B68184662
:1019080001F025FA002318461437BD46F0BD000043
:1019180080B586B000AF78607B68002B01D10123C9
:1019280067E27B681B6803F00103002B75D0884BC6
:101938009B6803F00C03042B0CD0854B9B6803F0C9
:101948000C03082B12D1824B5B6803F48003B3F5B8
:10195800800F0BD17E4B1B6803F40033002B5BD048
:101968007B685B68002B57D1012342E27B685B6888
:10197800B3F5803F06D1764B1B68754A43F4803334
:1019880013601DE07B685B68B3F5A02F0CD1704B2A
:101998001B686F4A43F4802313606D4B1B686C4AC5
:1019A80043F4803313600BE0694B1B68684A23F4E7
:1019B80080331360664B1B68654A23F480231360E9
:1019C8007B685B68002B13D0FFF772FA386108E078
:1019D800FFF76EFA02463B69D31A642B01D9032339
:1019E80007E25B4B1B6803F40033002BF0D014E0D4
:1019F800FFF75EFA386108E0FFF75AFA02463B69DA
:101A0800D31A642B01D90323F3E1514B1B6803F468
:101A18000033002BF0D100E000BF7B681B6803F0A7
:101A28000203002B63D04A4B9B6803F00C03002B86
:101A38000BD0474B9B6803F00C03082B1CD1444B7D
:101A48005B6803F48003002B16D1414B1B6803F03D
:101A58000203002B05D07B68DB68012B01D0012332
:101A6800C7E13B4B1B6823F0F8027B681B69DB006E
:101A7800374913430B603AE07B68DB68002B20D0C2
:101A8800344B01221A60FFF713FA386108E0FFF7B8
:101A98000FFA02463B69D31A022B01D90323A8E1A6
:101AA8002B4B1B6803F00203002BF0D0284B1B685C
:101AB80023F0F8027B681B69DB00254913430B60A0
:101AC80015E0244B00221A60FFF7F2F9386108E0AC
:101AD800FFF7EEF902463B69D31A022B01D903231B
:101AE80087E11B4B1B6803F00203002BF0D17B68D6
:101AF8001B6803F00803002B36D07B685B69002B5A
:101B080016D0154B01221A60FFF7D2F9386108E0A8
:101B1800FFF7CEF902463B69D31A022B01D90323FA
:101B280067E10B4B5B6F03F00203002BF0D01BE067
:101B3800094B00221A60FFF7BBF938610EE0FFF786
:101B4800B7F902463B69D31A022B07D9032350E1A0
:101B58000038024000004742800E4742884B5B6FC6
:101B680003F00203002BEAD17B681B6803F004032F
:101B7800002B00F097800023FB75814B1B6C03F052
:101B88008053002B0FD10023BB607D4B1B6C7C4A1C
:101B980043F0805313647A4B1B6C03F08053BB6093
:101BA800BB680123FB75774B1B6803F48073002B1C
:101BB80018D1744B1B68734A43F480731360FFF7A2
:101BC80077F9386108E0FFF773F902463B69D31AE1
:101BD800022B01D903230CE16A4B1B6803F48073C1
:101BE800002BF0D07B689B68012B06D1644B1B6FE0
:101BF800634A43F0010313671CE07B689B68052B6D
:101C08000CD15F4B1B6F5E4A43F0040313675C4BB8
:101C18001B6F5B4A43F0010313670BE0584B1B6FC4
:101C2800574A23F001031367554B1B6F544A23F09F
:101C3800040313677B689B68002B15D0FFF738F9FE
:101C480038610AE0FFF734F902463B69D31A41F2DA
:101C58008832934201D90323CBE0494B1B6F03F031
:101C68000203002BEED014E0FFF722F938610AE0F6
:101C7800FFF71EF902463B69D31A41F288329342B4
:101C880001D90323B5E03E4B1B6F03F00203002B81
:101C9800EED1FB7D012B05D1394B1B6C384A23F063
:101CA800805313647B689B69002B00F0A180344B40
:101CB8009B6803F00C03082B5CD07B689B69022BA4
:101CC80041D1314B00221A60FFF7F2F8386108E081
:101CD800FFF7EEF802463B69D31A022B01D903231A
:101CE80087E0274B1B6803F00073002BF0D17B685B
:101CF800DA697B681B6A1A437B685B6A9B011A4333
:101D08007B689B6A5B08013B1B041A437B68DB6AA0
:101D18001B061B4913434B601B4B01221A60FFF73C
:101D2800C7F8386108E0FFF7C3F802463B69D31AE1
:101D3800022B01D903235CE0114B1B6803F00073ED
:101D4800002BF0D054E0104B00221A60FFF7B0F8D7
:101D5800386108E0FFF7ACF802463B69D31A022B5A
:101D680001D9032345E0064B1B6803F00073002BE1
:101D7800F0D13DE07B689B69012B07D1012338E056
:101D88000038024000700040600047421B4B5B680F
:101D9800FB607B689B69012B28D0FB6803F48002F9
:101DA8007B68DB699A4221D1FB6803F03F027B68BC
:101DB8001B6A9A421AD1FA6847F6C07313407A68C8
:101DC800526A9201934211D1FB6803F440327B6856
:101DD8009B6A5B08013B1B049A4207D1FB6803F02E
:101DE80070627B68DB6A1B069A4201D0012300E01F
:101DF800002318461837BD4680BD00BF0038024092
:101E080080B584B000AF786039607B68002B01D161
:101E18000123CCE0684B1B6803F007033A689A4239
:101E28000CD9654B3A68D2B21A70634B1B6803F041
:101E380007033A689A4201D00123B8E07B681B681F
:101E480003F00203002B20D07B681B6803F0040317
:101E5800002B05D0594B9B68584A43F4E0539360D4
:101E68007B681B6803F00803002B05D0534B9B6865
:101E7800524A43F460439360504B9B6823F0F0024E
:101E88007B689B684D4913438B607B681B6803F034
:101E98000103002B44D07B685B68012B07D1474BBB
:101EA8001B6803F40033002B19D101237FE07B6802
:101EB8005B68022B03D07B685B68032B07D13F4B21
:101EC8001B6803F00073002B09D101236FE03B4B23
:101ED8001B6803F00203002B01D1012367E0374B95
:101EE8009B6823F003027B685B68344913438B606B
:101EF800FEF7DEFFF8600AE0FEF7DAFF0246FB684D
:101F0800D31A41F28832934201D903234FE02B4B75
:101F18009B6803F00C027B685B689B009A42EBD1DC
:101F2800254B1B6803F007033A689A420CD2224BF0
:101F38003A68D2B21A70204B1B6803F007033A685C
:101F48009A4201D0012332E07B681B6803F0040346
:101F5800002B08D0194B9B6823F4E0527B68DB68A0
:101F6800164913438B607B681B6803F00803002B3A
:101F780009D0124B9B6823F460427B681B69DB0025
:101F88000E4913438B6000F021F802460B4B9B6807
:101F98001B0903F00F030A49CB5C22FA03F3094A31
:101FA8001360094B1B681846FEF73EFF00231846CE
:101FB8001037BD4680BD00BF003C024000380240DB
:101FC800B82E000800000020040000202DE9B04FC2
:101FD80090B000AF00237B630023FB6300233B63C7
:101FE8000023BB63594B9B6803F00C03082B0DD0EF
:101FF800082B00F2A180002B02D0042B03D09BE019
:10200800534BBB639BE0534BBB6398E04F4B5B6800
:1020180003F03F037B634D4B5B6803F48003002BA5
:1020280028D04A4B5B689B0900223B627A623B6A74
:10203800C3F308000021474B03FB01F2002300FB18
:1020480003F31344434AA0FB0212FA620A46BA6237
:10205800FA6A1344FB627B6B0022BB61FA61D7E921
:102068000623D7E90A01FEF7B3F802460B461346E2
:10207800FB6353E0354B5B689B0900223B617A6147
:102088003B69C3F3080A4FF0000B52465B464FF01A
:1020980000004FF00001590141EAD26150010246A7
:1020A8000B46B2EB0A0863EB0B094FF000024FF046
:1020B80000034FEA891343EA98634FEA8812B2EBA8
:1020C800080463EB09054FF000024FF00003EB0032
:1020D80043EA5473E20014461D4614EB0A033B60BE
:1020E80045EB0B037B604FF000024FF00003D7E98C
:1020F800004529468B02214643EA915321468A022C
:10210800104619467B6B0022BB60FA60D7E90223B0
:10211800FEF75EF802460B461346FB630B4B5B6803
:102128001B0C03F0030301335B003B63FA6B3B6B4F
:10213800B2FBF3F3BB6302E0054BBB6300BFBB6BB1
:1021480018464037BD46BDE8B08F00BF0038024092
:102158000024F40040787D0180B400AF034B1B6875
:102168001846BD465DF8047B704700BF000000209C
:1021780080B500AFFFF7F0FF0246054B9B689B0A4E
:1021880003F007030349CB5C22FA03F3184680BD2A
:1021980000380240C82E000880B500AFFFF7DCFF0A
:1021A8000246054B9B685B0B03F007030349CB5CB6
:1021B80022FA03F3184680BD00380240C82E0008F2
:1021C80080B582B000AF78607B68002B01D1012315
:1021D8003FE07B6893F83D30DBB2002B06D17B688B
:1021E800002283F83C207868FEF7CEFC7B68242226
:1021F80083F83D207B681B68DA687B681B6822F4DB
:102208000052DA60786800F08FF87B681B681A69FA
:102218007B681B6822F490421A617B681B685A69C4
:102228007B681B6822F02A025A617B681B68DA689F
:102238007B681B6842F40052DA607B6800221A64EB
:102248007B68202283F83D207B68202283F83E208B
:10225800002318460837BD4680BD80B582B000AF60
:10226800786039607B68002B01D1012357E07B68D7
:1022780093F83D30DBB2002B06D17B68002283F84F
:102288003C207868FEF780FC7B68242283F83D2098
:102298007B681B68DA687B681B6822F40052DA6086
:1022A800786800F041F87B681B681A697B681B68CE
:1022B80022F400621A617B681B685A697B681B6894
:1022C80022F02A025A617B681B681A697B681B68BE
:1022D80042F480421A617B681B681A697B681B6834
:1022E80022F020021A617B681B6819697B681B68E9
:1022F8003A680A431A617B681B68DA687B681B685E
:1023080042F40052DA607B6800221A647B6820225B
:1023180083F83D207B68202283F83E20002318465E
:102328000837BD4680BD00002DE9B04FC0B000AFF2
:10233800C7F8F400D7F8F4301B681B6923F4405041
:10234800D7F8F430D968D7F8F4301A6840EA0103AE
:102358001361D7F8F4309A68D7F8F4301B691A4338
:10236800D7F8F4305B691A43D7F8F430DB691343C4
:10237800C7F8F830D7F8F4301B68DB6823F4164147
:1023880021F00C01D7F8F4301A68D7F8F8300B436D
:10239800D360D7F8F4301B685B6923F44070D7F832
:1023A800F4309969D7F8F4301A6840EA01035361A8
:1023B800D7F8F4301A688F4B9A4205D0D7F8F43022
:1023C8001A688D4B9A4204D1FFF7E6FEC7F8FC0065
:1023D80003E0FFF7CDFEC7F8FC00D7F8F430DB695F
:1023E800B3F5004F40F00C81D7F8FC300022C7F855
:1023F800E830C7F8EC20D7E93A4522462B46911831
:10240800B9655B41FB65D7E91623214612EB010844
:10241800294643EB01094FF000024FF000034FEA51
:10242800C90343EA58734FEAC802904699462346BF
:1024380018EB0303C7F8E0302B4649EB0303C7F852
:10244800E430D7F8F4305B680022C7F8D830C7F812
:10245800DC20D7E936120B46DB183B65134642EB06
:1024680003037B65D7E91423D7E93801FDF7B0FEEC
:1024780002460B46614BA3FB02235B091C01D7F8FC
:10248800FC300022C7F8D030C7F8D420D7E9348907
:1024980042464B469118B9645B41FB64D7E9122365
:1024A800414612EB010A494643EB010B4FF000028B
:1024B8004FF000034FEACB0343EA5A734FEACA02CC
:1024C80092469B4643461AEB0303C7F8C8304B466F
:1024D8004BEB0303C7F8CC30D7F8F4305B68002225
:1024E800C7F8C030C7F8C420D7E930120B46DB184C
:1024F8003B64134642EB03037B64D7E91023D7E917
:102508003201FDF765FE02460B4611463B4BA3FB25
:1025180001235B09642202FB03F3CB1ADB0003F1FE
:102528003202364BA3FB02235B095B0003F4F8730A
:102538001C44D7F8FC300022C7F8B830C7F8BC20D4
:10254800D7E92E8942464B469118B9635B41FB6334
:10255800D7E90E2341465118396349464B417B63FD
:102568004FF000024FF00003D7E90CAB5946CB00FF
:10257800514643EA51735146CA001046194603466C
:1025880042469B18C7F8B0304B460A4642EB030355
:10259800C7F8B430D7F8F4305B680022C7F8A83021
:1025A800C7F8AC20D7E92A120B46DB18BB621346E2
:1025B80042EB0303FB62D7E90A23D7E92C01FDF7B5
:1025C80007FE02460B460D4BA3FB02135B09642171
:1025D80001FB03F3D31ADB003233084AA2FB0323BF
:1025E8005B0903F00702D7F8F4301B6822449A60AD
:1025F80005E100BF00100140001401401F85EB51A8
:10260800D7F8FC300022C7F8A030C7F8A420D7E9D3
:10261800288942464B46911839625B417B62D7E96B
:10262800082341465418494643EB01054FF0000280
:102638004FF00003EB0043EA5473E20014461D46D2
:102648004346E318C7F898304B4645EB0303C7F8F1
:102658009C30D7F8F4305B680022C7F89030C7F890
:1026680094204FF000024FF00003D7E92445294693
:102678008B00214643EA917321468A00D7E9260157
:10268800FDF7A6FD02460B46604BA3FB02235B0940
:102698001C01D7F8FC300022C7F88830C7F88C2016
:1026A800D7E9228942464B469118B9615B41FB61E3
:1026B800D7E9062341465118396149464B417B61A8
:1026C8004FF000024FF00003D7E904AB5946CB00A6
:1026D800514643EA51735146CA001046194603460B
:1026E80042469B18C7F880304B460A4642EB030324
:1026F800C7F88430D7F8F4305B680022BB67FA6704
:102708004FF000024FF00003D7E91E8949468B00BD
:10271800414643EA917341468A00D7E92001FDF713
:1027280057FD02460B46394BA3FB02135B09642194
:1027380001FB03F3D31A1B013233344AA2FB0323F0
:102748005B0903F0F0031C44D7F8FC3000223B6718
:102758007A67D7E91C8942464B469118B9605B41B4
:10276800FB60D7E9022341465118396049464B417D
:102778007B604FF000024FF00003D7E900AB5946E9
:10278800CB00514643EA51735146CA0010461946D8
:10279800034642469B18BB664B460A4642EB030378
:1027A800FB66D7F8F4305B6800223B667A664FF028
:1027B80000024FF00003D7E9188949468B004146CB
:1027C80043EA917341468A00D7E91A01FDF700FDF3
:1027D80002460B460D4BA3FB02135B09642101FB68
:1027E80003F3D31A1B013233084AA2FB03235B0904
:1027F80003F00F02D7F8F4301B6822449A6000BF38
:1028080007F58077BD46BDE8B08F00BF1F85EB5147
:1028180084B080B584B000AF786007F11C0080E810
:102828000E003B6B012B22D17B689B6B23F480321B
:102838007B689A637B68DB6823F4840323F0400396
:102848007A68D3607B68DB6823F440127B68DA60BF
:10285800FB6C012B05D17B68DB6843F480127B6835
:10286800DA60786800F0A2FA0346FB731AE07B6826
:10287800DB6843F040027B68DA60786800F096FA1B
:102888000346FB733B6C002B06D17B689B6B43F4C0
:1028980080327B689A6305E07B689B6B23F4803207
:1028A8007B689A63BB6A012B0BD17B689B6843F0FA
:1028B80006027B689A607B689B6843F020027B680D
:1028C8009A60FB7B18461037BD46BDE8804004B0CF
:1028D800704780B483B000AF78607B689B6823F052
:1028E80001027B689A60002318460C37BD465DF8E4
:1028F800047B704780B584B000AF78600B46FB70EE
:102908000023FB607B68DB6823F0C0427B68DA60E9
:10291800FB78012B15D17B68DB6843F000527B689C
:10292800DA600120FEF7D0FAFB680133FB607868B3
:1029380000F02EFA0346012B1ED0FB68312BF0D98C
:102948001AE0FB78002B15D17B68DB6843F08042E6
:102958007B68DA600120FEF7B7FAFB680133FB6099
:10296800786800F015FA0346002B05D0FB68312B78
:10297800F0D901E0012305E0FB68322B01D10123E6
:1029880000E0002318461037BD4680BD84B080B5EE
:1029980086B000AF786007F1240080E80E000023BD
:1029A800FB757B68FB6000233B6109E07A683B6943
:1029B80040339B00134400225A603B6901333B615A
:1029C8003B690E2BF2D9FB6C002B1CD1FB6803F57D
:1029D80000635B68FA6802F5006243F00203536023
:1029E8007B689B6B43F400127B689A637B689B6BE4
:1029F80023F400227B689A637B689B6B23F4802214
:102A08007B689A630BE07B689B6B23F400127B68FE
:102A18009A637B689B6B43F400227B689A63FB682C
:102A280003F560631A4600231360FB6803F500632F
:102A38001946FB6803F500631A460B681360BB6B05
:102A4800012B0CD1FB6A002B04D10021786800F01F
:102A580065F908E00121786800F060F903E00321D6
:102A6800786800F05BF91021786800F0F3F8034605
:102A7800002B01D00123FB75786800F01FF903468D
:102A8800002B01D00123FB75FB6803F500631A4690
:102A980000231361FB6803F500631A4600235361A2
:102AA800FB6803F500631A460023D36100233B61EA
:102AB80043E03B695A01FB68134403F510631B6844
:102AC80003F00043B3F1004F18D13B69002B0AD142
:102AD8003B695A01FB68134403F510631A464FF02B
:102AE8000063136013E03B695A01FB68134403F564
:102AF80010631A464FF09043136008E03B695A018F
:102B0800FB68134403F510631A46002313603B69FE
:102B18005A01FB68134403F510631A460023136136
:102B28003B695A01FB68134403F510631A464FF6D4
:102B38007F3393603B6901333B617B6A3A699A4210
:102B4800B7D300233B6143E03B695A01FB68134458
:102B580003F530631B6803F00043B3F1004F18D14D
:102B68003B69002B0AD13B695A01FB68134403F502
:102B780030631A464FF00063136013E03B695A0153
:102B8800FB68134403F530631A464FF09043136013
:102B980008E03B695A01FB68134403F530631A46A1
:102BA800002313603B695A01FB68134403F5306343
:102BB8001A46002313613B695A01FB68134403F565
:102BC80030631A464FF67F3393603B6901333B61AC
:102BD8007B6A3A699A42B7D3FB6803F500631B69BD
:102BE800FA6802F5006223F4807313617B6800229F
:102BF8009A617B686FF080425A613B6B002B05D16C
:102C08007B689B6943F010027B689A617B689A69CC
:102C18000F4B13437A689361FB6B002B05D07B68DD
:102C28009B6943F008027B689A61FB6C012B07D112
:102C38007B689B6943F0804343F004037A6893619F
:102C4800FB7D18461837BD46BDE8804004B0704784
:102C580000383C8080B485B000AF786039600023CC
:102C6800FB60FB680133FB60FB68134A934201D9A0
:102C780003231BE07B681B69002BF2DA0023FB604F
:102C88003B689B0143F020027B681A61FB680133B3
:102C9800FB60FB68084A934201D9032306E07B687E
:102CA8001B6903F02003202BF0D0002318461437AB
:102CB800BD465DF8047B7047400D030080B485B0C5
:102CC80000AF78600023FB60FB680133FB60FB68A2
:102CD800114A934201D9032318E07B681B69002B32
:102CE800F2DA0023FB607B6810221A61FB6801336B
:102CF800FB60FB68084A934201D9032306E07B681E
:102D08001B6903F01003102BF0D00023184614376A
:102D1800BD465DF8047B7047400D030080B485B064
:102D280000AF78600B46FB707B68FB60FB6803F5BF
:102D380000631A68FB78F96801F5006113430B60BA
:102D4800002318461437BD465DF8047B704780B4ED
:102D580085B000AF78607B68FB60FB6803F5606353
:102D68001B68FA6802F5606223F003031360FB68CE
:102D780003F500635B68FA6802F5006243F002033A
:102D88005360002318461437BD465DF8047B70472E
:102D980080B483B000AF78607B685B6903F001039F
:102DA80018460C37BD465DF8047B704780B485B083
:102DB80000AF78600023FB60FB680133FB60FB68B1
:102DC800134A934201D903231BE07B681B69002B3C
:102DD800F2DA0023FB607B681B6943F001027B6821
:102DE8001A61FB680133FB60FB68094A934201D909
:102DF800032306E07B681B6903F00103012BF0D075
:102E0800002318461437BD465DF8047B704700BFA1
:102E1800400D030070B50D4D0D4C641BA410002629
:102E2800A64209D10B4D0C4C00F020F8641BA410ED
:102E38000026A64205D170BD55F8043B98470136D7
:102E4800EEE755F8043B98470136F2E7D82E00081C
:102E5800D82E0008D82E0008DC2E000802440346AD
:102E6800934200D1704703F8011BF9E7F8B500BF9A
:102E7800F8BC08BC9E467047F8B500BFF8BC08BC53
:042E88009E467047AB
:102E8C00000002400000024000000240000402402A
:102E9C000004024002002000800002000004000038
:102EAC0001001000400001000400000000000000C0
:102EBC0000000000010203040607080900000000DE
:042ECC0001020304F8
:082ED00038D3FF7F0100000070
:042ED800BD01000830
:042EDC009901000850
:0C2EE0000024F4001000000001000000BD
:0400000508000D9949
:00000001FF
